:020000040800F2
:100000000080022001130008FD120008FB12000806
:10001000FB120008FB120008FB12000800000000A1
:10002000000000000000000000000000FD120008B9
:10003000FD12000800000000FD120008690D000814
:10004000FB120008FB120008FB120008FB1200085C
:10005000FB120008FB120008FB120008FB1200084C
:10006000FB120008FB120008FB120008FB1200083C
:10007000FB120008FB120008FB120008FB1200082C
:10008000FB120008FB120008FB120008FB1200081C
:10009000FB120008FB120008FB120008FB1200080C
:1000A000FB120008FB120008FB120008FB120008FC
:1000B000FB120008FB120008FB120008FB120008EC
:1000C000FB120008FB120008FB120008FB120008DC
:1000D000FB120008FB120008C90D0008FB12000803
:1000E000FB120008FB120008FB120008FB120008BC
:1000F000FB120008FB120008FB120008FB120008AC
:10010000FB120008FB120008FB120008FB1200089B
:10011000FB120008FB120008FB120008FB1200088B
:10012000FB120008FB120008FB120008FB1200087B
:10013000FB120008FB120008FB120008FB1200086B
:10014000FB120008FB120008FB120008FB1200085B
:10015000FB120008FB120008FB120008FB1200084B
:10016000FB120008FB120008FB120008FB1200083B
:10017000FB120008FB120008FB120008FB1200082B
:10018000FB120008FB120008FB120008FB1200081B
:10019000FB120008FB120008FB120008FB1200080B
:1001A000FB120008FB120008FB12000838B50446D9
:1001B000837863F07F0383700388A3B1642B20D01E
:1001C00008238370002303800325284638BD0423B9
:1001D000A3700325F9E7A37843F00103A370A37884
:1001E00013F0010FF1D120214FF0904000F0BFFE3D
:1001F00000F0B4FDA0600A4B1B685B08E360642359
:100200002380A07810F00405E1D1E168A06800F037
:1002100051FB0028DFD0A37823F00103A370DEE7B1
:10022000300000200023C0F80034C0F80434C0F8C7
:1002300008347047D0F808343BB9D0F80024D0F81F
:1002400004349A4203D000207047002070470120F8
:100250007047D0F80804704738B50546D0F8044414
:1002600040F82410FFF7F5FF48B1D5F8003401330A
:100270005A42DBB2D2B258BF5342C5F80034631CB5
:100280005A42DBB2D2B258BF5342C5F80434D5F853
:100290000024934214BF00230123C5F8083438BD5D
:1002A00038B50446837863F07F0383700388712B2D
:1002B0001ED041D8002B4FD0702B69D1A37813F0FA
:1002C00004054CD1364A126812F0080F4BD123F0C6
:1002D0000103A370A37813F0010F5ED1304A1368B5
:1002E00043F0080313602F4B00221A8071232380F0
:1002F000A57815F004053AD101222B49294800F0D0
:100300006DFC022837D9A37823F00103A370A378EA
:1003100013F0010F41D1244B19782448FFF79CFFBB
:100320001F4A136823F008031360A37803F07F03C8
:10033000A3707423238001E0742B29D1A37813F0D8
:1003400004051DD113F0800F1ED143F00103A370EB
:10035000A37813F0010F20D170232380AEE704238C
:10036000A370032519E043F00103A370B2E704234F
:10037000A370032511E0A37843F00103A370C6E73F
:100380000423A370032508E023F00103A370DFE733
:100390000823A370002323800325284638BD00BF0F
:1003A000C02000205C2100205B08002040000020CD
:1003B0000246D0F8003450F823000021C2F8081497
:1003C0000133C91ADBB2C9B258BF4B42C2F800347C
:1003D0007047000038B50446837863F07F0383706C
:1003E0000388002B5AD0882B00F29580812BC0F017
:1003F0009280813B072B00F28E80DFE803F0048CB3
:10040000238C418C8C75A37813F004054DD1454A9B
:10041000126812F0040F4CD123F00103A370A378EB
:1004200013F0010F7CD13F4A136843F004031360BB
:100430003D48FFF7BDFF3D4B18703D4B00221A8031
:1004400083232380A57815F0040536D1374B19781E
:10045000374800F089FB022833D9A37823F0010341
:10046000A370A37813F0010F5AD12E4A136823F01A
:1004700004031360A37803F07F03A3708523238014
:10048000A37813F0040521D113F0800F22D143F09B
:100490000103A370A37813F0010F41D12248FFF7A5
:1004A000C9FED8B981232380ADE70423A3700325B7
:1004B00036E043F00103A370B1E70423A3700325E2
:1004C0002EE0A37843F00103A370CAE70423A370CE
:1004D000032525E023F00103A370DBE7A37803F0F5
:1004E0007F03A37088232380A37813F004050AD127
:1004F00013F0800F0BD143F00103A370A37813F026
:10050000010FCBD00CE00423A370032508E023F0F7
:100510000103A370F2E70823A370002323800325BF
:10052000284638BDC02000204C0400205D08002073
:100530007421002010B50446837863F07F03837034
:100540000388A82B23D0AB2B4ED0002B5AD00823E6
:10055000837000230380032010BD4FF40051334803
:1005600000F002FD10B33248FFF722FFC0B2314B5A
:10057000187000F0E9F8C1B22F4B19702F48FFF73F
:100580006BFEA37803F07F03A370A8232380A378D6
:1005900013F0040020D113F0800F21D143F00103A8
:1005A000A370A37813F0010F2CD0D5E74FF40051BE
:1005B0001E4800F0D9FC0028E3D11D48FFF7F8FEE3
:1005C000C0B21F4B187000F0A5F801461D4B187003
:1005D0001A48FFF741FED4E70423A3700320BBE7CA
:1005E00023F00103A370DCE7A37813F0040015D116
:1005F00013F0800F16D143F00103A370A37813F01A
:10060000010FA9D10A48FFF715FE0028A5D0A3784D
:1006100003F07F03A370AB232380E5E70423A370DB
:10062000032099E723F00103A370E7E700080048DF
:10063000400000205C080020580800204C040020E6
:100640005A0800205908002008B5002000F0D6FD07
:100650004FF4006000F0D2FD4FF400530022114629
:10066000054800F08DFC2023002201214FF090402E
:1006700000F086FC08BD00BF0008004808B50C4823
:10068000FFF7D0FD0B48FFF7CDFDFFF7DDFF0A4870
:1006900000F0F0FA094800F073F8094800F070F82B
:1006A000084800F06DF8084800F06AF808BD00BF7F
:1006B000400000204C040020F8130008AD010008A1
:1006C000A1020008D503000835050008074B18787B
:1006D000002305E0591C054A515CD1540133DBB2BB
:1006E0001A46132BF6D9014B98547047000000208E
:1006F000074B1878002305E0591C054A515CD1547A
:100700000133DBB21A46132BF6D9014B98547047CC
:100710001800002010B500F0FBFB094B1B7853FAC2
:1007200080F0084B83FB0023DB101A2202FB13032B
:10073000DCB24134E4B2FFF7C9FF204610BD00BF70
:10074000000000204FECC44E10B500F0E1FB0A4B56
:100750001A78C3B29B1A1A33084A82FB0312D817BD
:10076000C0EBE2001A2202FB1030C4B24134E4B202
:10077000FFF7BEFF204610BD180000204FECC44E0E
:1007800030B5334B1D781F2D03D80024A6462346D1
:1007900003E000203AE00133DBB21F2B37D803EB34
:1007A00043022C4901EBC2025268824206D0002C5F
:1007B000F1D1002AEFD19E460124ECE7254A03EB54
:1007C0004301CC0002EBC10100201053887049693D
:1007D0000968888020494B5501351D490D700EEB85
:1007E0004E0102EBC102128A5AB91C490A88013231
:1007F00092B20A800EEB4E0E164901EBCE0EAEF809
:10080000102003EB4303134800EBC30030BDE4B1F9
:10081000104B0EEB4E02D40003EBC20250600021DD
:10082000195391705069006881800B4901F805E007
:10083000013507490D7009480188013189B20180ED
:1008400011820EEB4E0E1046E0E70020DEE700BFFF
:10085000CD200020A00E0020A0110020CA200020E2
:10086000002301E00133DBB20E4A12789A4217D915
:100870009C460D4AD25CFD2AF4D802EB42020B4999
:1008800001EBC20252688242ECD1074BFE2203F810
:100890000C20074A136843F00103136001207047DE
:1008A00000207047CD200020A0110020A00E0020C5
:1008B000C020002038B504460D4600F04FFA031B57
:1008C000A04200D2013BAB4201D9012038BD00203B
:1008D000FCE7000038B5134B1D78002403E0013D10
:1008E000EDB20134E4B2E5B10123A3400E49096839
:1008F0000B42F6D004EB44018B000C4919448B6881
:10090000013B8B60002BEAD1084904EB44008300D3
:100910000B445868986004EB44029300CB58984706
:10092000DDE738BDC8200020C4200020E00D0020F5
:1009300010B5002423E004EB4403DA00214B1344F8
:1009400000215960204AFF20105504EB4402D000DA
:100950001E4A024451601E4A02EBC400586104EB77
:10096000440399001B4B0B4442F83430C4EB04128F
:10097000D3001949194400F091F90134E4B21F2C55
:10098000D9D90023154A13600F2B08D803EB430174
:100990008A001349002088500133DBB2F4E70023BA
:1009A000104A1370104A1370104A1370202000F080
:1009B000B5F800F0E3F900F077F900F0B5F8FFF7CB
:1009C0005DFE10BDA00E0020A011002060080020D8
:1009D000E00C0020600B0020C0110020C42000208B
:1009E000E00D0020CD200020CC200020C8200020D9
:1009F00070B5FFF79DFF234B00221A801CE00134E5
:100A0000E4B2B44213D2204B1D5D05EB45031F48F1
:100A100000EBC300436898470328F0D105EB450578
:100A20001A4B03EBC5056868FFF71AFFE7E7184B99
:100A30001B6813F0010F03D1164B1E780024E0E76A
:100A4000144A1178104A525CFE2A03D099B1013938
:100A5000C9B2F7E74A1CD2B205E0541E0A48855CC9
:100A600005550132D2B2B242F7D3013E064AFF2009
:100A70009055F6B2EAE7074A167023F00103044ADC
:100A80001360D9E7CA200020A0110020A00E00208A
:100A9000C0200020CD2000200023438083800280DE
:100AA000816070478388B0F800C063450BD24288EC
:100AB000134493FBFCF20CFB123382689BB2D154BB
:100AC0008388013383807047438882881344028877
:100AD00093FBF2FC02FB1C3382689BB2D1548388E7
:100AE0000288934202D001338380704743880133E8
:100AF00093FBF2F102FB1133438070470346816898
:100B00004288885C0132198892FBF1FC01FB1C22AF
:100B10005A809A88013A9A8070470000014B186009
:100B2000704700BFD020002010B5094C094B23604E
:100B300009480A4B186040220949FFF7ADFF4022DF
:100B400008492068FFF7A8FF00F0DCF910BD00BFDE
:100B5000542100208C2100209821002058210020C1
:100B600014210020D420002010B50446837843F0DF
:100B70008003837002883AB1542A09D00823A370F5
:100B800000232380032010BD124A117054220280DA
:100B900013F0040015D1104A12681188928891420E
:100BA00013D023F00103A370A37813F0010FEAD14F
:100BB000084B1978084B1868FFF774FF00F0E2F84B
:100BC000DCE70423A3700320DDE743F00103A370F7
:100BD000EAE700BFAA21002058210020F8B504460A
:100BE000837863F07F03837003883BB1D72B14D0E5
:100BF0000823A370002323800320F8BD194B1A702B
:100C0000194B1960194B00221A70184B1A78154BA2
:100C10001B789A42ECD2D7232380A37813F00400E8
:100C200017D1134A12689288BAB123F00103A37056
:100C3000A37813F0010FE0D10C4D2E780A4B1F68FA
:100C40000B4B1868FFF75AFFB8552B7801332B7000
:100C5000DBE70423A3700320CFE743F00103A37075
:100C6000E6E700BFA8210020A4210020A921002040
:100C70005421002010B504460AE0074B186802888A
:100C800083889A42F9D00134FFF70CFF00F07AF81C
:100C900021780029F1D110BD5821002008B5782213
:100CA0000068FFF7F9FE08BD10B582B0042000F01F
:100CB0007DFB244800F074FB00F089FB00F080FB12
:100CC000022000F009FA00F02DF9042000F032F9BA
:100CD00000F03AF900F040F9002401940094234612
:100CE00028220421022000F039FA204600F0F4F90D
:100CF0004FF4186000F082FA40F6811000F07EFA9E
:100D000040F6821000F07AFA40F6831000F076FA8E
:100D100040F6841000F072FA4FF4406000F06EFA72
:100D2000032000F011FA204600F0B2F9064B074A02
:100D30001360074A1360074A1360074B1C6002B038
:100D400010BD00BF8038010000B4C404340000208E
:100D5000380000203C000020AC210020014B186826
:100D6000704700BFAC21002008B5034A1368013367
:100D70001360FFF7AFFD08BDAC21002008B500F0FF
:100D800059FA08BD0C4B1B6813F0100F00D07047C8
:100D900010B543F01003084A1360084B1868FFF7BA
:100DA000ADFE0146064B1870064C204600F09DFA39
:100DB000204600F090FA10BDC020002058210020ED
:100DC000B12100200044004010B54FF04023D3F87B
:100DD000003413F0200F06D04FF04023D3F81C341A
:100DE00013F0200F1AD14FF04023D3F8003413F042
:100DF000800F1DD04FF04023D3F81C3413F0800F28
:100E000016D0124B186883889BB9114800F068FA15
:100E1000104A136823F01003136009E00C4800F037
:100E200068FAC1B20C4B19700C4B1868FFF74CFEF6
:100E300010BDFFF763FE0146094B1870044C2046B5
:100E400000F053FA204600F046FAF1E7582100205E
:100E500000440040C0200020B02100205421002088
:100E6000B121002038B50546262000F0B7FA40F63B
:100E7000113000F0C3F90423002202214FF090400A
:100E800000F07EF80823002202214FF0904000F08D
:100E900077F80823012211464FF0904000F090F8B7
:100EA000042207214FF0904000F0A5F80822072106
:100EB0004FF0904000F09FF8114C2946204600F07A
:100EC000C3F90821204600F0DBF90021204600F09C
:100ED000E0F90C21204600F0E8F90021204600F05E
:100EE000DEF90021204600F0E6F9204600F0F8F98E
:100EF000204600F0EBF9204600F0E3F938BD00BFD2
:100F00000044004008B54FF46140FFF7ABFF08BD57
:100F1000034BC35C03F00303022B08BF2038704768
:100F20002A140008024A136843F480731360704760
:100F300000200240034A136823F00703184310609F
:100F4000704700BF00200240024A136843F48063E8
:100F50001360704700200240024A136843F4007394
:100F600013607047002002400069084070474369E1
:100F700001EA030221EA030141EA0241816170476B
:100F80002DE9F0410568C46800264FF0030E43FACE
:100F900006F7FF070DD577000EFA07FC01FA07F8F0
:100FA00025EA0C0524EA0C0402FA07F748EA0505CD
:100FB0003C430136102EEAD10560C460BDE8F081E3
:100FC000012941680CBF19439943F0B5416081681C
:100FD0000024032643FA04F5ED0707D5650006FA59
:100FE00005F721EA070102FA05F529430134102C1F
:100FF000F0D18160F0BDF0B5076A466A00234FF07A
:101000000F0C42FA03F4E50707D59D000CFA05F42E
:1010100027EA040701FA05F52F430133082BF0D125
:1010200000234FF00F0C03F1080442FA04F4E40724
:1010300007D59C000CFA04F526EA050601FA04F42B
:1010400026430133082BEED107624662F0BD000053
:10105000CA4008B502F003020A4B022A9B680BD073
:10106000032A0BD0012A06D1C3F3031000F0D4F8F1
:10107000054B1B68584308BD0448FCE74FF400408B
:10108000F9E700BF00100240340000200024F40003
:10109000032808D8DFE800F0160F08020D4A93680D
:1010A00013F00C0FFBD170470A4A9368C3F3810316
:1010B000012BFAD17047074A9368C3F38103022BCF
:1010C000FAD17047034A9368C3F38103032BFAD123
:1010D000704700BF00100240062831D8DFE800F05A
:1010E000040A0F1419212900164A136843F080736B
:1010F00013607047134A136843F48033F8E7114ACA
:10110000136843F48073F3E70E4A136843F0010356
:10111000EEE70C4AD2F8903043F00103C2F8903069
:101120007047084AD2F8943043F00103C2F8943073
:101130007047044AD2F8983043F00103C2F898305F
:10114000704700BF00100240034A936823F0030376
:1011500018439060704700BF0010024010B5039C18
:101160000139640644EA01142043029C40EA4450D9
:10117000034343EA0222024B42F08072DA6010BD60
:1011800000100240164A9042034602F5C83206D1CA
:10119000D2F88820134B0A211868FFF759BF12496B
:1011A000884204D1D2F88820104B0021F4E70D4981
:1011B00008680F498B4203D1D2F888200221ECE75E
:1011C0000C498B4203D1D2F888200421E5E70A4973
:1011D000D2F888208B420CBF06210821DDE700BF32
:1011E0000080004038000020003801403C00002012
:1011F0000044004000480040004C0040430903F117
:10120000804303F5043300F01F001968012202FA3D
:1012100000F008431860704707284FF0010307D912
:101220000B2894BF0738063803FA00F080B27047E5
:1012300018467047034AD2F8003843F00403C2F856
:10124000003870470000065038B50D460446FFF7D9
:1012500099FF0A4A94424FEA550303BFB0FBF5F1E8
:1012600005FB110203EB02221B1806BFB2FBF5F3CC
:1012700003EB0123B3FBF5F3E36038BD00800040CE
:10128000036808290CBF23F4805343F480530360A0
:101290007047436823F44053194341607047036823
:1012A00023F4C063194301607047036823F00C0303
:1012B000194301607047836823F4407319438160C8
:1012C0007047036843F0010303607047036843F00D
:1012D000200303607047036843F080030360704796
:1012E000036823F0800303607047C1F30801816243
:1012F0007047406AC0F308007047FEE7704700007F
:1013000038B51D4A1D4B1E498B4220D31D4A002172
:10131000934221D34FF0E0231B4CD3F8142D1B4DE7
:1013200042F40072C3F8142DD3F8882D42F47002F1
:10133000C3F8882DAC4212D3154C164DAC4212D3D3
:10134000FFF756FB144C154DAC4210D338BD52F884
:10135000040B43F8040BD7E743F8041BD8E754F811
:10136000043B9847E6E754F8043B9847E6E754F80F
:10137000043B9847E8E700BF2C1500080000002058
:1013800040000020B42100202C1500082C15000876
:101390002C1500082C1500082C1500082C15000829
:1013A0004FF0E02320F07F40586170474FF0E0227B
:1013B00000F00400136923F0040303431361704732
:1013C0004FF0E022136943F00203136170474FF0BE
:1013D000E022136943F0010313617047054B420992
:1013E00003EB820300F01F00012202FA00F01860F4
:1013F000704700BF00E100E00A7372632F6D345F35
:101400006170702E632C206275696C74206F6E2081
:1014100041707220323520323032332061742031F5
:10142000383A34393A32370A000020202020202070
:101430002020202828282828202020202020202084
:101440002020202020202020202088101010101084
:1014500010101010101010101010040404040404D4
:1014600004040404101010101010104141414141B7
:10147000410101010101010101010101010101011C
:1014800001010101011010101010104242424242AD
:1014900042020202020202020202020202020202EC
:1014A00002020202021010101020000000000000D2
:1014B000000000000000000000000000000000002C
:1014C000000000000000000000000000000000001C
:1014D000000000000000000000000000000000000C
:1014E00000000000000000000000000000000000FC
:1014F00000000000000000000000000000000000EC
:1015000000000000000000000000000000000000DB
:1015100000000000000000000000000000000000CB
:0C152000000000000000000000000000BF
:10152C00424F4C44464541524C455353434F4E4613
:10153C004944454E54000000424F4C4446454152EC
:10154C004C455353434F4E464944454E54000000BE
:10155C00E803000000093D0000093D0000093D00C2
:0400000508001301DB
:00000001FF
