:020000040800F2
:1000000000800220E93E0008E53E0008E33E0008CB
:10001000E33E0008E33E0008E33E00080000000065
:10002000000000000000000000000000E53E0008A5
:10003000E53E000800000000E53E00082D380008FD
:10004000E33E0008E33E0008E33E0008E33E00080C
:10005000E33E0008E33E0008E33E0008E33E0008FC
:10006000E33E0008E33E0008E33E0008E33E0008EC
:10007000E33E0008E33E0008E33E0008E33E0008DC
:10008000E33E0008E33E0008E33E0008E33E0008CC
:10009000E33E0008E33E0008E33E0008E33E0008BC
:1000A000E33E0008E33E0008E33E0008E33E0008AC
:1000B000E33E0008E33E0008E33E0008E33E00089C
:1000C000E33E0008E33E0008E33E0008E33E00088C
:1000D000E33E0008E33E00088D380008E33E0008D8
:1000E000E33E0008E33E0008E33E0008E33E00086C
:1000F000E33E0008E33E0008E33E0008E33E00085C
:10010000E33E0008E33E0008E33E0008E33E00084B
:10011000E33E0008E33E0008E33E0008E33E00083B
:10012000E33E0008E33E0008E33E0008E33E00082B
:10013000E33E0008E33E0008E33E0008E33E00081B
:10014000E33E0008E33E0008E33E0008E33E00080B
:10015000E33E0008E33E0008E33E0008E33E0008FB
:10016000E33E0008E33E0008E33E0008E33E0008EB
:10017000E33E0008E33E0008E33E0008E33E0008DB
:10018000E33E0008E33E0008E33E0008E33E0008CB
:10019000E33E0008E33E0008E33E0008E33E0008BB
:1001A000E33E0008E33E0008E33E000838B504469D
:1001B000837863F07F0383700388002B00F08E87C1
:1001C000B3F5BF7F01F25281A72BC1F04F81A73B4E
:1001D000D72B01F24B81DFE813F0EE00090149094A
:1001E000490949094909490949094909490949097F
:1001F000B001CB0149094909490949094909490996
:100200004909490927024202490949094909490995
:100210004909490949094909490949094909BD02E1
:10022000D8024909490949094909490949094909B6
:10023000490949094909490961037C0349094909EF
:10024000490949094909490949094909490949091E
:100250004909E403FF0349094909490949094909C9
:100260004909490949094909490949097704920491
:1002700049094909490949094909490949094909EE
:10028000490949094909490949096201800149099E
:100290004909490949094909490949090E052A0530
:1002A00049094909490949094909490949094909BE
:1002B000790595054909490949094909490949093A
:1002C0004909E305FF054909490949094909490956
:1002D0004909490941065D06490949094909490988
:1002E0004909490949099E06BA06490949094909BE
:1002F000490949094909490949094909490949096E
:10030000490949094909490949094909490949095D
:10031000490949094909490949094909490949094D
:1003200049094909490931074D0749094909490955
:10033000490949094909490949094909490949092D
:100340004909AF07CB074909490949094909490939
:100350004909490949090A08260849094909490971
:10036000490949094909490949097A089608490981
:100370004909490949094909EF080A094909490987
:1003800049097007490949092C019D49180101EBE8
:10039000031231250D50302151609160D16001333D
:1003A000984A1370974B1B78042BEED9964B012279
:1003B0001A70A7232380A37813F004054CD1934A25
:1003C000126812F0080F4CD123F00103A370A37838
:1003D00013F0010F41F03B808C4A136843F008038F
:1003E00013608B4B00221A80A8232380A57815F078
:1003F00004053AD101228749854803F051F90228C2
:1004000038D9A37823F00103A370A37813F0010F68
:1004100041F01D807D4A136823F0080313607D4B73
:100420001B7863BBA37803F07F03A3704FF4BF7303
:100430002380A37813F0040541F00F8013F0800FA0
:1004400041F00F8043F00103A370A37813F0010F74
:1004500000F0448600F0FBBF0423A370032500F0E6
:10046000F6BF43F00103A370B1E70423A370032593
:1004700000F0EDBFA37843F00103A370C5E7664B1E
:10048000187802F0B1FF002840F0C885614B1B7856
:10049000532B50D04C2B40F09585FF232380A3781D
:1004A00013F0040540F09183584A126812F0080FC7
:1004B00040F0908323F00103A370A37813F0010FA1
:1004C00040F0C587514A136843F008031360504B4E
:1004D00000221A804FF480732380A57815F004055C
:1004E00040F07C8301224D49494803F0D9F80228A5
:1004F00040F27983A37823F00103A370A37813F06B
:10050000010F40F0A487414A136823F008031360E9
:1005100042490B78424AA2FB0302520902EB420213
:10052000A3EB0213DBB20B70002B40F0BA83354B08
:1005300000221A709FE3B2232380A37813F00405EE
:100540004BD1324A126812F0080F4BD123F001034D
:10055000A370A37813F0010F40F079872B4A13683A
:1005600043F0080313602A4B00221A80B323238030
:10057000A57815F0040539D101222849244803F053
:100580008FF8022837D9A37823F00103A370A3784A
:1005900013F0010F40F05B871C4A136823F0080337
:1005A00013601E490B781E4AA2FB0302520902EB9C
:1005B0004202A3EB0213DBB20B70002B75D0012BB0
:1005C00000F00981022B00F0AA81032B00F02A829F
:1005D000042B00F0BA8200F081BD0423A370032530
:1005E00000F035BF43F00103A370B2E70423A3700A
:1005F000032500F02CBFA37843F00103A370C6E7E6
:10060000240100201701002020010020D81900201B
:1006100010210020180100200801002013010020F3
:10062000ABAAAAAABC232380A37813F004057CD12B
:100630008F4A126812F0080F7CD123F00103A370D7
:10064000A37813F0010F40F00287894A136843F042
:1006500008031360874B00221A80BD232380A578EE
:1006600015F004056AD101228349824803F018F885
:10067000022868D9A37823F00103A370A37813F0AC
:10068000010F40F0E4867A4A136823F008031360F0
:100690007A4B1A787A490B7803EB82027648057810
:1006A000784840F8225001330B70754B1B78032BB0
:1006B000B8D9724B1878734B020103EB00109D58A8
:1006C000714AA2FB0513590901EB4103A5EB031184
:1006D0004568A2FB05C35B0903EB4303A5EB0313CA
:1006E000642505FB03F34FF47A7505FB0133856838
:1006F000A2FB05C1490901EB4101A5EB011101EB89
:10070000810103EB4103C168A2FB0102520902EB24
:100710004202A1EB021213445C4A136000235C4ABC
:100720001370574A137000F0C1BC0423A370032553
:1007300000F08DBE43F00103A37081E70423A37092
:10074000032500F084BEA37843F00103A37095E76E
:10075000C9232380A37813F0040576D1444A126894
:1007600012F0080F76D123F00103A370A37813F0E1
:10077000010F40F06C863E4A136843F00803136093
:100780003C4B00221A80CA232380A57815F004056B
:1007900064D101223849374802F082FF022862D929
:1007A000A37823F00103A370A37813F0010F40F0A6
:1007B0004E862F4A136823F0080313602F4B1A78D4
:1007C0002F490B7803EB82022B4805782D4840F81F
:1007D000225001330B702A4B1B78032BB8D9274BBF
:1007E0001878284B020103EB00109D58264AA2FB03
:1007F0000513590901EB4103A5EB03114568A2FB61
:1008000005C35B0903EB4303A5EB0313642505FB59
:1008100003F34FF47A7505FB01338568A2FB05C12C
:10082000490901EB4101A5EB011101EB810103EB4A
:100830004103C168A2FB0102520902EB4202A1EB93
:1008400002121344134A136068E70423A3700325BC
:1008500000F0FDBD43F00103A37087E70423A370FC
:10086000032500F0F4BDA37843F00103A3709BE7D8
:10087000D8190020102100201501002013010020AC
:100880001701002024010020ABAAAAAA48000020DA
:10089000180100204C000020D6232380A37813F0F9
:1008A000040569D17F4A126812F0080F69D123F05C
:1008B0000103A370A37813F0010F40F0C885794AB3
:1008C000136843F008031360774B00221A80D72384
:1008D0002380A57815F0040557D101227349724889
:1008E00002F0DEFE022855D9A37823F00103A3709D
:1008F000A37813F0010F40F0AA856A4A136823F029
:10090000080313606A4B1A786A490B7803EB82027A
:1009100066480578684840F8225001330B70654BF3
:100920001B78032BB8D9624B1978634B0A0103EB90
:1009300001119B583022B3FBF2F002FB10304B68E0
:10094000B3FBF2F502FB1533642505FB03F34FF40B
:100950007A7505FB00338868B0FBF2F502FB1500E1
:100960000A2505FB0033C968B1FBF2F002FB101247
:100970001344524A1360D1E60423A370032500F008
:1009800066BD43F00103A37094E70423A37003251D
:1009900000F05DBDA37843F00103A370A8E7E32353
:1009A0002380A37813F0040569D13E4A126812F03F
:1009B000080F69D123F00103A370A37813F0010F8E
:1009C00040F04585374A136843F008031360364BFF
:1009D00000221A80E4232380A57815F0040557D15E
:1009E00001223249304802F05BFE022855D9A37833
:1009F00023F00103A370A37813F0010F40F02785C3
:100A0000284A136823F008031360294B1A782949F0
:100A10000B7803EB820225480578274840F82250DE
:100A200001330B70234B1B78032BB8D9204B19785B
:100A3000214B0A0103EB01119B583022B3FBF2F06A
:100A400002FB10304B68B3FBF2F502FB1533642553
:100A500005FB03F34FF47A7505FB00338868B0FBA0
:100A6000F2F502FB15000A2505FB0033C968B1FB4E
:100A7000F2F002FB10121344114A13604EE60423F5
:100A8000A370032500F0E3BC43F00103A37094E7D7
:100A90000423A370032500F0DABCA37843F001031C
:100AA000A370A8E7D819002010210020150100200C
:100AB0001301002017010020240100205000002015
:100AC00054000020F0232380A37813F0040569D19B
:100AD000AB4A126812F0080F69D123F00103A3702A
:100AE000A37813F0010F40F0B284A54A136843F0D5
:100AF00008031360A34B00221A80F1232380A578FA
:100B000015F0040557D101229F499E4802F0C8FD07
:100B1000022855D9A37823F00103A370A37813F01A
:100B2000010F40F09484964A136823F00803136081
:100B3000964B1A7896490B7803EB82029248057817
:100B4000944840F8225001330B70914B1B78032BD3
:100B5000B8D98E4B19788F4B0A0103EB01119B58C2
:100B60003022B3FBF2F002FB10304B68B3FBF2F51E
:100B700002FB1533642505FB03F34FF47A7505FB7F
:100B800000338868B0FBF2F502FB15000A2505FB6F
:100B90000033C968B1FBF2F002FB101213447E4A25
:100BA0001360BBE50423A370032500F050BC43F0A1
:100BB0000103A37094E70423A370032500F047BC4E
:100BC000A37843F00103A370A8E70423A3700325CF
:100BD00000F03DBC43F00103A3706EE40423A37056
:100BE000032500F034BCA37843F00103A37085E42F
:100BF0004FF484732380A37813F0040540D1604A36
:100C0000126812F0040F3FD123F00103A370A37800
:100C100013F0010F40F01B84594A136843F004039A
:100C200013605E4B00221A8040F209132380A578DE
:100C300015F004052CD1554B1A78554B1B7803EB56
:100C40008203544A12F82310544802F0EFFC0228A1
:100C500022D9A37823F00103A370A37813F0010F26
:100C600040F0F583464A136823F004031360484AB2
:100C7000137801331370464B1B78032BB8D94DE51D
:100C80000423A3700325E2E343F00103A370BEE74E
:100C90000423A3700325DAE3A37843F00103A370D0
:100CA000DBE7012B0BD0022B66D0032B00F0D280A8
:100CB000042B40F01382364B00221A706BE1344B48
:100CC00000221A7042E04FF489732380A37813F056
:100CD000040540D12A4A126812F0040F3FD123F0D4
:100CE0000103A370A37813F0010F40F0B083244AEE
:100CF000136843F004031360284B00221A8040F26B
:100D000013132380A57815F004052CD11F4B1A78F6
:100D10001F4B1B7803EB82031E4A12F823101F4857
:100D200002F084FC022822D9A37823F00103A370E7
:100D3000A37813F0010F40F08A83114A136823F05F
:100D400004031360124A137801331370104B1B789D
:100D5000032BB8D9E2E40423A370032577E343F01F
:100D60000103A370BEE70423A37003256FE3A378F8
:100D700043F00103A370DBE7054B00221A704FE03C
:100D8000D819002010210020150100201301002097
:100D900017010020240100209000002028210020BD
:100DA000A37813F0040544D1944A126812F0040F9A
:100DB00043D123F00103A370A37813F0010F40F097
:100DC00046838E4A136843F0040313608C4B002261
:100DD0001A804FF48E732380A57815F0040530D166
:100DE000884B1A78884B1B7803EB8203874A12F8EA
:100DF0002310834802F01AFC022826D9A37823F096
:100E00000103A370A37813F0010F40F020837B4A05
:100E1000136823F0040313607B4A137801331370C3
:100E2000794B1B78032B3FF679AC40F21B132380E0
:100E3000B6E70423A370032509E343F00103A3707D
:100E4000BAE70423A370032501E3A37843F0010369
:100E5000A370D7E76C4B00221A703FE0A37813F021
:100E6000040544D1654A126812F0040F43D123F0FF
:100E70000103A370A37813F0010F40F0E8825F4AEA
:100E8000136843F0040313605D4B00221A8040F2A4
:100E900025132380A57815F0040530D1594B1A7815
:100EA000594B1B7803EB8203584A12F8231054481D
:100EB00002F0BCFB022826D9A37823F00103A3701B
:100EC000A37813F0010F40F0C2824C4A136823F05C
:100ED000040313604C4A1378013313704A4B1B7898
:100EE000032B3FF61BAC4FF492732380B6E7042329
:100EF000A3700325ABE243F00103A370BAE7042318
:100F0000A3700325A3E2A37843F00103A370D7E7FE
:100F100040F22D132380A37813F0040541D1374A02
:100F2000126812F0040F40D123F00103A370A378DC
:100F300013F0010F40F08B82304A136843F0040332
:100F400013602F4B00221A804FF497732380A578EB
:100F500015F004052DD12B4B1A782B4B1B7803EB86
:100F600082032A4A12F82310254802F05FFB022868
:100F700023D9A37823F00103A370A37813F0010F02
:100F800040F065821D4A136823F0040313601E4A73
:100F90001378013313701C4B1B78032BB8D9FFF760
:100FA000BDBB0423A370032551E243F00103A370EA
:100FB000BDE70423A370032549E2A37843F00103AE
:100FC000A370DAE7124B187802F00EFA002800F04E
:100FD0008580104B1A68104B1A6003E00D4A1368A5
:100FE0005B0813600A4B187802F0FEF90028F5D16F
:100FF000094B1A68074B1A60FFF790BBD8190020FD
:1010000028210020130100201701002024010020C6
:101010000F010020540000201C010020994B18787B
:1010200002F0E2F9002874D0974B1A78974BD35C02
:1010300013F0070F52D040F24D132380A37813F022
:10104000040555D1924A126812F0040F54D123F0CE
:101050000103A370A37813F0010F40F0F8818C4ACC
:10106000136843F0040313608A4B00221A804FF484
:10107000A7732380A57815F0040541D1824B197818
:10108000844802F0D3FA02283ED9A37823F0010362
:10109000A370A37813F0010F40F0D9817C4A136844
:1010A00023F004031360784B00221A70A37803F036
:1010B0007F03A37040F27B132380A37813F0040511
:1010C00040F0C28113F0800F40F0C38143F0010370
:1010D000A370A37813F0010F40F0B9816E4B1B7819
:1010E000002B7FF463A96D4B00221A70FFF75AB9E9
:1010F0000423A3700325AAE143F00103A370A9E729
:101100000423A3700325A2E1A37843F00103A37095
:10111000BFE7634B187802F067F9002858D05A4BA4
:101120001B785A4A9A5C02F00302022A3DD05D4ABB
:10113000137040F25B132380A37813F0040536D1BB
:10114000534A126812F0040F35D123F00103A37043
:10115000A37813F0010F40F07A814D4A136843F0F1
:10116000040313604B4B00221A804FF4AE732380AC
:10117000A57815F0040522D14A4B1978454802F0AC
:1011800055FA02281FD9A37823F00103A370A3788E
:1011900013F0010F40F05B813D4A136823F0040314
:1011A0001360394B00221A7080E7203BBFE704230D
:1011B000A37003254BE143F00103A370C8E70423A8
:1011C000A370032543E1A37843F00103A370DEE796
:1011D000354B187802F008F9002869D02A4B1878A6
:1011E00000F0DEFD314B187040F265132380A378C8
:1011F00013F0040534D1264A126812F0040F33D1DB
:1012000023F00103A370A37813F0010F40F01F81B6
:101210001F4A136843F0040313601E4B00221A8018
:101220004FF4B3732380A57815F0040520D11F4B2C
:101230001978184802F0FAF902281DD9A37823F08A
:101240000103A370A37813F0010F40F00081104A4E
:10125000136823F0040313600B4B00221A7025E778
:101260000423A3700325F2E043F00103A370CAE74F
:101270000423A3700325EAE0A37843F00103A370DD
:10128000E0E700BF0F0100201801002076400008B1
:10129000D81900202821002020010020170100205B
:1012A000100100207401002011010020160100200F
:1012B000714B187802F098F8002852D06F4B1878CC
:1012C00000F088FD6E4B187040F26F132380A378F6
:1012D00013F0040534D16B4A126812F0040F33D1B5
:1012E00023F00103A370A37813F0010F40F0AF8047
:1012F000644A136843F004031360634B00221A80AE
:101300004FF4B8732380A57815F0040520D15C4B09
:1013100019785D4802F08AF902281DD9A37823F0D4
:101320000103A370A37813F0010F40F09080554A99
:10133000136823F004031360504B00221A70B5E6C3
:101340000423A370032582E043F00103A370CAE7DE
:101350000423A37003257AE0A37843F00103A3706C
:10136000E0E74FF40051494802F0FBFB00283FF44E
:101370009DAE4FF40061464802F0F3FB00287FF475
:1013800095AE4FF48061424802F0EBFB00287FF4F9
:101390008DAE4FF400713E4802F0E3FB00287FF46D
:1013A00085AE4FF480713A4802F0DBFB00287FF4F1
:1013B0007DAE4FF4BB732380A37813F0040532D1C4
:1013C000304A126812F0040F31D123F00103A370E8
:1013D000A37813F0010F3AD12A4A136843F00403AB
:1013E0001360294B00221A8040F277132380A578DE
:1013F00015F004051FD1214B1978234802F016F986
:1014000002281CD9A37823F00103A370A37813F05A
:10141000010F1CD11B4A136823F004031360174B00
:1014200000221A7042E60423A37003250FE043F064
:101430000103A370CCE70423A370032507E0A3787E
:1014400043F00103A370E1E70423A37003252846BA
:1014500038BD23F00103A3703BE60423A3700325EA
:10146000F5E723F00103A370FEF7EFBF0823A37095
:10147000002323800325EAE7120100201801002041
:1014800014010020D819002028210020000800485D
:10149000000400482DE9F84301F028FC01F0F6FBB8
:1014A00001F0FEFB02214FF0904001F0E9FFDFF870
:1014B000308188F8000001214FF0904001F0E0FFFA
:1014C000394F3870394C8021204601F0D9FF384E11
:1014D00030704FF48071204601F0D2FF354D2870F6
:1014E00020214FF0904001F0CBFFDFF8F89089F811
:1014F00000004FF40051204601F0E8FF2E4B187019
:10150000A4F580644FF40061204601F0DFFF2B4B0F
:1015100018704FF48061204601F0D8FF284B1870F6
:101520004FF40071204601F0D1FF264B18704FF4A4
:101530008071204601F0CAFF234B1870234B198895
:1015400099F8000001F086FF214B198898F80000F7
:1015500001F080FF1F4B1988387801F07BFF1E4B8C
:101560001988307801F076FF1C4B1988287801F033
:1015700071FF02231A460121204602F0F5FA0423E6
:1015800002220121204602F0EFFA08230222012163
:10159000204602F0E9FA102302220121204602F03F
:1015A000E3FABDE8F88300BF0C0100200008004802
:1015B0000D0100200E010020080100200F01002075
:1015C00010010020110100201201002090000020D5
:1015D000480000204C000020500000205400002053
:1015E0000B0100200A01002008B5FFF753FF064851
:1015F00002F0A2F8054800F017FD054800F014FDC0
:1016000001F086FF08BD00BFE03F0008AD01000803
:10161000ED16000870B586B004462D4B1A680021FF
:10162000084601F08BFB5E220021084601F078FBA2
:10163000284B1A680021012001F080FB264B53F84B
:1016400024200121002001F079FB244B53F82430A1
:10165000234AA2FB0312920905922249A1FB03012E
:1016600002EB82056D00C5EB511504951E49A1FBE7
:101670000301642000FB02F6C6EBD10605EB8501F1
:10168000A6EB410603964FF47A7404FB123400FB78
:10169000154406EB8603A4EB43040294303209217F
:1016A000002001F03DFB05F130020A21002001F08D
:1016B00037FB06F130020B21002001F031FB04F171
:1016C00030020C21002001F02BFB06B070BD00BFE2
:1016D000880000208C000020100000202400002042
:1016E000D34D62101F85EB51CDCCCCCC2DE9F04110
:1016F0008AB0044600250595069507950895099535
:1017000030230593069307930893837863F07F0350
:101710008370038840F2ED12934200F03682B3F5F5
:10172000F77F80F0928040F29F12934200F049814F
:10173000B3F5D07F7BD340F2C712934200F0F28121
:10174000B3F5E47F40F0F682A37813F0040640F08E
:10175000088215F4006F40F0088223F00103A370A3
:10176000A37813F0010F40F0EA827F4B1A68002142
:10177000084601F0E3FA7D4B1B78002B40F0F9811D
:101780007B4B1A680021012001F0D8FA5E2200216B
:10179000084601F0C5FA754E3278764B53F8222090
:1017A0000121002001F0CAFA3278734B53F822303D
:1017B000724AA2FB0312920904927149A1FB030130
:1017C00002EB82077F00C7EB511703976D49A1FB1E
:1017D0000301642000FB02F8C8EBD10807EB870186
:1017E000A8EB4108CDF808804FF47A7606FB123654
:1017F00000FB176608EB8803A6EB43060196303220
:101800000921002001F08CFA07F130020A210020A2
:1018100001F086FA08F130020B21002001F080FA75
:1018200006F130020C21002001F07AFA3AE13BB3D4
:10183000B3F5CF7F40F07E82A67816F0040600F064
:10184000AD800423A370032679E240F20E22934276
:1018500064D034D940F22122934240F06B82A378C5
:1018600013F0040640F05E8213F0800F40F05E82B9
:1018700043F00103A370A37813F0010F40F05F82DF
:1018800000F0CAFA85B2404B1B78002B40F07781FC
:1018900010F4806F00F03181344A13780133DBB2E9
:1018A0001370042B02D9134604221A7001F0B8FFFA
:1018B000A060FA23E3604FF4CF732380BCE7B3F555
:1018C000FB7F00F09C8140F20B22934240F0328279
:1018D000A67816F0040640F0DF81E168A06800F009
:1018E0003DFC002800F0DC81A37823F00103A37005
:1018F000A37813F0010F40F02282244A0021084609
:1019000001F01CFA224A0021012001F017FAA37805
:1019100003F07F03A37040F20E232380A37813F01B
:10192000040640F0C28113F0800F40F0C28143F002
:101930000103A370A37813F0010F40F00082154B50
:10194000187801F051FD30B9134B187801F04CFDB7
:10195000002800F0B28101F063FFA060FA23E36089
:1019600040F20B232380B3E7880000200901002008
:101970008C0000201000002024000020D34D6210B5
:101980001F85EB51CDCCCCCC2101002000000020E4
:10199000380000201101002012010020E168A06839
:1019A00000F0DCFB002800F09580A37823F0010311
:1019B000A370A37813F0010F40F0C18140F29F1390
:1019C0002380A37813F0040640F0898015F4806F1B
:1019D00040F0898023F00103A370A37813F0010F76
:1019E00040F0AD81B84B1A680021084601F0A6F915
:1019F000B64B1B78032B7AD9B54B1A68002101200E
:101A000001F09CF976220021012001F089F9AF4E06
:101A10003278B04B53F822200121002001F08EF9DA
:101A20003278AD4B53F82230AC4AA2FB0312920934
:101A30000492AB49A1FB030102EB82077F00C7EBD5
:101A400051170397A749A1FB0301642000FB02F88B
:101A5000C8EBD10807EB8701A8EB4108CDF8088057
:101A60004FF47A7606FB123600FB176608EB880304
:101A7000A6EB4306019630320921002001F050F90F
:101A800007F130020A21002001F04AF908F1300282
:101A90000B21002001F044F906F130020C21002056
:101AA00001F03EF915F4005F02D08F4B01221A704D
:101AB0008E4B187801F098FC002800F02B818A4B9F
:101AC00002221A70A37803F07F03A37040F221234F
:101AD0002380C4E6A37843F00103A37069E70423DD
:101AE000A37003262BE143F00103A37075E75E2288
:101AF0000021084601F014F97EE710F4006FD1D000
:101B0000724A1378013BDBB21370042B02D91346DF
:101B100000221A7001F084FEA060FA23E36040F214
:101B2000C7132380A67816F0040603D00423A370FD
:101B3000032604E1E168A06800F010FB60B1A3781F
:101B400023F00103A370A37813F0010F40F0F78096
:101B50004FF4E4732380F7E5A37843F00103A37007
:101B6000F1E70423A3700326E9E043F00103A37027
:101B7000F6E576220021012001F0D2F800E6012BE3
:101B800040F0848040F2ED132380A67816F004061E
:101B90000BD100F041F960B9A37823F00103A370E1
:101BA000A37813F0010F39D0C9E00423A3700326F2
:101BB000C5E0A37843F00103A370F1E701F070F8EA
:101BC000424B1A78434B53F822200121002001F0A8
:101BD000B5F8474A0921002001F0B0F8454A0D2127
:101BE000002001F0ABF8444A0121084601F0A6F8B4
:101BF000A37803F07F03A3704FF4FB732380A378D3
:101C000013F0040611D113F0800F12D143F0010339
:101C1000A370A37813F0010F40F0918000F0FCF85E
:101C200010F4004FCAD0002308E00423A370032659
:101C300085E023F00103A370EBE70133032B07DCFE
:101C40002B4AD25C5F2AF8D1294A3021D154F4E7DB
:101C50001E4F97F80080264E304601F0BBFE81B241
:101C6000404601F0F7FB304601F0B4FE3A781A4BDB
:101C700043F822005F23F370B37073703370104623
:101C8000FFF7C8FC184B00221A700BE7164B022214
:101C90001A7001F005F852E60423A37003264EE003
:101CA000A37843F00103A37022E60423A370032664
:101CB00045E023F00103A3703CE6044B1878FFF7DE
:101CC000A9FC002320E000BF8800002009010020BB
:101CD0008C0000201000002024000020D34D621052
:101CE0001F85EB51CDCCCCCC21010020110100206F
:101CF00094000020144000081840000820221249D7
:101D0000CA541249CA5401330F2BF7DD104B00227D
:101D10001A70C7E60F4B187801F066FB00283FF4F5
:101D2000D1AECCE60423A370032608E023F0010320
:101D3000A370A0E50823A370002323800326304668
:101D40000AB0BDE8F08100BF00000020380000208C
:101D50002101002012010020074B1878002305E024
:101D6000591C054A515CD1540133DBB21A46142B7D
:101D7000F6D9014B9854704758000020074B18784B
:101D8000002305E0591C054A515CD1540133DBB2F4
:101D90001A46132BF6D9014B985470477000002057
:101DA00010B501F0A7FE094B1B7853FA80F0084BE1
:101DB00083FB0023DB101A2202FB1303DCB2413445
:101DC000E4B2FFF7C9FF204610BD00BF5800002055
:101DD0004FECC44E10B501F08DFE0A4B1A78C3B219
:101DE0009B1A1A33084A82FB0312D817C0EBE20091
:101DF0001A2202FB1030C4B24134E4B2FFF7BEFF36
:101E0000204610BD700000204FECC44E01E000BF22
:101E100001380028FBDC704710B5574C02212046E2
:101E200001F09CFE0421204601F098FE0821204686
:101E300001F094FE1021204601F090FE0221204680
:101E400001F08AFE3220FFF7E1FF4FF48071204657
:101E500001F087FE4FF40071204601F082FE4FF43E
:101E60008061204601F07DFE4FF40061204601F0C4
:101E700078FE0221204601F071FE0421204601F087
:101E80006DFE0821204601F069FE1021204601F078
:101E900065FE0421204601F05FFE3220FFF7B6FF09
:101EA0004FF48071204601F05CFE4FF40071204633
:101EB00001F057FE4FF48061204601F052FE4FF4CE
:101EC0000061204601F04DFE0221204601F046FE51
:101ED0000421204601F042FE0821204601F03EFE8A
:101EE0001021204601F03AFE0821204601F034FE80
:101EF0003220FFF78BFF4FF48071204601F031FE56
:101F00004FF40071204601F02CFE4FF48061204612
:101F100001F027FE4FF40061204601F022FE02216D
:101F2000204601F01BFE0421204601F017FE082187
:101F3000204601F013FE1021204601F00FFE102173
:101F4000204601F009FE3220FFF760FF4FF4807158
:101F5000204601F006FE4FF40071204601F001FE1C
:101F60004FF48061204601F0FCFD4FF400612046F3
:101F700001F0F7FD10BD00BF0004004838B504466D
:101F800001F054FA80B201F02DFF204601F04EFA24
:101F90000546204601F054FA83B20022012128466A
:101FA00001F0E2FD38BD38B5054601F03FFA0446C0
:101FB000284601F045FA81B2204601F0CDFD38BD3A
:101FC00038B5054601F032FA0446284601F038FAE1
:101FD00081B2204601F0C2FD38BD38B5044601F09B
:101FE00011FA80B201F0FEFE204601F00BFA054620
:101FF000204601F011FA83B200221146284601F072
:10200000B3FD38BD38B5054601F0FCF90446284655
:1020100001F002FA81B2204601F0A3FD08B10120CF
:1020200038BD0020FCE7000030B5334B1D781F2D74
:1020300003D80024A646234603E000203AE00133FB
:10204000DBB21F2B37D803EB43022C4901EBC20252
:102050005268824206D0002CF1D1002AEFD19E4670
:102060000124ECE7254A03EB4301CC0002EBC1015C
:1020700000201053887049690968888020494B55B1
:1020800001351D490D700EEB4E0102EBC102128AA3
:102090005AB91C490A88013292B20A800EEB4E0EE0
:1020A000164901EBCE0EAEF8102003EB43031348A4
:1020B00000EBC30030BDE4B1104B0EEB4E02D40078
:1020C00003EBC202506000211953917050690068FF
:1020D00081800B4901F805E0013507490D70094879
:1020E0000188013189B2018011820EEB4E0E10463B
:1020F000E0E70020DEE700BFE5190020B807002078
:10210000B80A0020E2190020002301E00133DBB20D
:102110000E4A12789A4217D99C460D4AD25CFD2A83
:10212000F4D802EB42020B4901EBC2025268824230
:10213000ECD1074BFE2203F80C20074A136843F04A
:10214000010313600120704700207047E51900204B
:10215000B80A0020B8070020D819002038B5044676
:102160000D4601F05DFB031BA04200D2013BAB42D8
:1021700001D9012038BD0020FCE7000038B5134B21
:102180001D78002403E0013DEDB20134E4B2E5B175
:102190000123A3400E4909680B42F6D004EB440129
:1021A0008B000C4919448B68013B8B60002BEAD1F2
:1021B000084904EB440083000B445868986004EB22
:1021C00044029300CB589847DDE738BDE019002062
:1021D000DC190020F806002010B5002423E004EBF1
:1021E0004403DA00214B134400215960204AFF20A8
:1021F000105504EB4402D0001E4A024451601E4AAE
:1022000002EBC400586104EB440399001B4B0B44E0
:1022100042F83430C4EB0412D3001949194401F0D8
:102220009FFA0134E4B21F2CD9D90023154A136058
:102230000F2B08D803EB43018A0013490020885074
:102240000133DBB2F4E70023104A1370104A137015
:10225000104A1370202001F0C3F901F0F1FA01F0E7
:1022600085FA01F0C3F9FFF7BFF910BDB8070020E8
:10227000B80A002078010020F8050020780400202A
:10228000D80A0020DC190020F8060020E5190020FB
:10229000E4190020E019002070B5FFF79DFF234BE3
:1022A00000221A801CE00134E4B2B44213D2204B65
:1022B0001D5D05EB45031F4800EBC30043689847CD
:1022C0000328F0D105EB45051A4B03EBC5056868FB
:1022D000FFF71AFFE7E7184B1B6813F0010F03D154
:1022E000164B1E780024E0E7144A1178104A525C1D
:1022F000FE2A03D099B10139C9B2F7E74A1CD2B21C
:1023000005E0541E0A48855C05550132D2B2B2423E
:10231000F7D3013E064AFF209055F6B2EAE7074A96
:10232000167023F00103044A1360D9E7E219002074
:10233000B80A0020B8070020D8190020E5190020AD
:1023400038B50446837863F07F0383700388002BDD
:1023500000F0AF80EE2B00F28A844C2BC0F0878413
:102360004C3BA22B00F28384DFE813F0AB00810426
:102370008104810481048104810481048104810435
:102380008104810481048104810481048104810425
:102390008104810481048104810481048104810415
:1023A00081048104810481048104CC0081048104BE
:1023B0008104F200810481048104180181048104F4
:1023C00081043E01810481048104640181047E0151
:1023D00081048104810481048104810481048104D5
:1023E00081048104810481048104810481048104C5
:1023F00081048104810481048104810481048104B5
:1024000081048104810481048104810481048104A4
:10241000990181048104810481048104B40181044F
:102420008104810481048104810481048104810484
:10243000CF01810481048104810481048104810429
:10244000EF018104810481048104810481048104F9
:10245000810481047C02810481048104810481045B
:1024600081048104810481048104DB0281048104EC
:102470000D03810435038104810481045803810420
:102480008104810481048104810481048104A803FE
:102490008104810481048104810481048104E703AF
:1024A00081048104160481048104330481048104BD
:1024B000500401F0B5F9A0604FF4FA73E3604C23C7
:1024C0002380A57815F0040540F04C81E168A068F0
:1024D000FFF744FE002800F04981A37823F00103B0
:1024E000A370A37813F0010F40F0C68300221146B9
:1024F000302000F0C9FC01F093F9A0600523E360EF
:102500006B232380A57815F0040540F03481E16841
:10251000A068FFF723FE002800F03181A37823F0A4
:102520000103A370A37813F0010F40F0A5830022EC
:102530000121302000F0A8FC00221146302000F0DC
:10254000A3FC01F06DF9A0600523E3606F232380F5
:10255000A57815F0040540F01781E168A068FFF741
:10256000FDFD002800F01481A37823F00103A3707F
:10257000A37813F0010F40F07F8300220121302067
:1025800000F082FC00221146302000F07DFC01F0BA
:1025900047F9A0600523E36073232380A57815F035
:1025A000040540F0FA80E168A068FFF7D7FD002835
:1025B00000F0F780A37823F00103A370A37813F051
:1025C000010F40F0598300220121302000F05CFC13
:1025D00000221146302000F057FC01F021F9A060E4
:1025E0000523E36077232380A57815F0040540F0E8
:1025F000DD80E168A068FFF7B1FD002800F0DA8017
:10260000A37823F00103A370A37813F0010F40F027
:10261000338300220121202000F036FC00221146E5
:10262000202000F031FC01F0FBF8A0600123E36002
:102630007B232380A57815F0040540F0C080E16875
:10264000A068FFF78BFD002800F0BD80A37823F081
:102650000103A370A37813F0010F40F00D83A24B88
:1026600000221A807D232380A57815F0040540F010
:10267000AF80002228219C4800F058FC022840F23C
:10268000AB80A37823F00103A370A37813F0010FAC
:1026900040F0F282944B00221A809E232380A5787A
:1026A00015F0040540F09D80002214218E4800F0B2
:1026B0003DFC022840F29980A37823F00103A37027
:1026C000A37813F0010F40F0D782874B00221A80C5
:1026D000A4232380A57815F0040540F08B80002208
:1026E0000C21814800F022FC022840F28780A37868
:1026F00023F00103A370A37813F0010F40F0BC8214
:10270000794B00221A80AE232380A57815F00405AA
:1027100079D100220621744800F008FC022876D9FD
:10272000A37823F00103A370A37813F0010F40F006
:10273000A3826E4B1B78002B00F0828000236B4A33
:102740001370694A1380B6232380A57815F0040519
:1027500062D1664B5B78002B62D1644B997841F073
:1027600080015EE00423A370032585E2A37843F093
:102770000103A370B5E60423A37003257CE2A378CC
:1027800043F00103A370CDE60423A370032573E295
:10279000A37843F00103A370EAE60423A3700325A2
:1027A0006AE2A37843F00103A37007E70423A37050
:1027B000032561E2A37843F00103A37024E7042317
:1027C000A370032558E2A37843F00103A37041E707
:1027D0000423A37003254FE2A37843F00103A37001
:1027E00053E70423A370032546E2A37843F00103D3
:1027F000A37065E70423A37003253DE2A37843F0AB
:102800000103A37077E70423A370032534E2A378C0
:1028100043F00103A37087E70423A37003252BE291
:1028200040210022304800F081FB022846D9A378DD
:1028300023F00103A370A37813F0010F40F01C8272
:102840002A4BDB782BB9294B5B7913B9274BDB7902
:102850004BB3264A0023D3705371D371224A13809D
:10286000C0232380A57815F004052CD11F4B1B79BC
:102870006BB30A231D4A9179002918BF43F0010365
:10288000127A32B3042100221943174800F04EFB9C
:10289000022820D9A37823F00103A370A37813F0B2
:1028A000010F40F0E981124B00221A70104B1B7887
:1028B000012B15D90F4B00221A709CE1A37843F02D
:1028C0000103A370B7E70423A3700325D4E1082311
:1028D000D0E70021D7E7A37843F00103A370DDE739
:1028E000054B00221A70ACE0E8190020001A002005
:1028F000F91A0020F11A0020F81A0020864B1B78E4
:1029000003EB8301854B03EBC10313445B7A002B7C
:102910007ED0824B01221A70814B00221A80CB2379
:102920002380A57815F0040540F095807A4B1B783C
:10293000002B00F0948040217A4B1B78194349B258
:1029400061F07F010022C9B2754800F0EFFA022859
:1029500040F28780A37823F00103A370A37813F0DB
:10296000010F40F089816C4B1B786E4A117803EBA4
:1029700083026A4B03EBC2030B4400225A72684B7A
:102980001A80CE232380A57815F004056ED1624B02
:102990001B78644A117803EB8302604B03EBC2039C
:1029A0000B44012293F859105D4800F0BFFA022849
:1029B00060D9A37823F00103A370A37813F0010F6B
:1029C00040F05A8157490A7801320A7003F07F03B8
:1029D000A370D0232380A37813F004054FD113F004
:1029E000800F50D143F00103A370A37813F0010FBF
:1029F00040F042814B4B1978474B1B7803EB830225
:102A0000464B03EBC2030B445B7A0BB12729AAD9CF
:102A1000A37803F07F03A370D4232380A37813F05B
:102A2000040534D113F0800F35D143F00103A370B6
:102A3000A37813F0010F40F01F813A4A1378013355
:102A40001370384B1A78272A7FF658AF324A13781A
:102A5000013313702AE70423A37003250CE100213E
:102A60006AE7A37843F00103A37077E70423A37018
:102A7000032501E1A37843F00103A3709DE704233C
:102A8000A3700325F8E023F00103A370ADE704234E
:102A9000A3700325F0E023F00103A370C8E71F4AE9
:102AA000134493F8A930002B00F08D8013460122C7
:102AB0001A701B4B00221A80DD232380A57815F0A5
:102AC00004051FD1184B1978C90041F040010022BC
:102AD00001F0F801124800F029FA022816D9A3786B
:102AE00023F00103A370A37813F0010F40F0C4801A
:102AF0000D4B1A78094B1344002283F8A9200B4B85
:102B00001A603BE00423A3700325B5E0A37843F0EB
:102B10000103A370E7E700BFF91A0020001A0020A4
:102B2000E8190020F81A0020F11A0020F41A0020F9
:102B3000524B00221A80E5232380A57815F0040566
:102B400074D14F4B19784F4B1A684F4B03EBC103AD
:102B50001344012293F8B110484800F0E7F9022825
:102B600068D9A37823F00103A370A37813F0010FB1
:102B700040F08280434A136801331360414B1B6865
:102B8000072BD5DD3E4A137801331370A37803F089
:102B90007F03A370E8232380A37813F004054ED1AC
:102BA00013F0800F4FD143F00103A370A37813F00B
:102BB000010F61D1324B1A78334B134493F8A9308B
:102BC0000BB1072A94D9A37803F07F03A370EB23FA
:102BD0002380A37813F0040539D113F0800F3AD184
:102BE00043F00103A370A37813F0010F44D1244AEA
:102BF000137801331370224B1B78072B7FF64FAFEE
:102C0000A37803F07F03A370EE232380A37813F04F
:102C1000040524D113F0800F25D143F00103A370E4
:102C2000A37813F0010F3FF484AD25E00423A370D3
:102C3000032521E0A37843F00103A37095E7042363
:102C4000A370032518E023F00103A370AEE704236B
:102C5000A370032510E023F00103A370C3E704234E
:102C6000A370032508E023F00103A370D8E708232D
:102C7000A370002323800325284638BDE8190020CF
:102C8000F11A0020F41A0020001A002008B500F004
:102C900099F80248FFF7C8F908BD00BF41230008B2
:102CA000002018E0104A00EB800C4FEACC011144E0
:102CB00019444FF0200C81F859C000EB800C4FEA0A
:102CC000CC010A441A44012151720B44DBB2272B78
:102CD000E8D90130C0B2012801D80023F7E7024B40
:102CE00001221A70704700BF001A002010B50B4B6C
:102CF00001221A72DA7100241C71DA709C715A7107
:102D0000FFF7CEFF234605E0044A1A44002182F86B
:102D1000A9100133072BF7D910BD00BF001A0020FE
:102D2000054B00EB800C03EBCC0C8C448CF8592049
:102D300001238CF809307047001A002070B54FF05D
:102D4000000E03E00EF1010E5FFA8EFE12F80E3057
:102D5000002BF7D11EE00C44184D85FB04654FEAAB
:102D6000E47CCCEB251C0CEB8C0CA4EBCC0CD65CE3
:102D7000134C00EB800504EBC505654485F85960EC
:102D800000EB800504EBC504A44401248CF8094041
:102D90002344DBB29E4510D91C46C518272DDADD29
:102DA0004D1C064E86FB0516E917C1EB261101EBFB
:102DB0008101A5EBC101C9B2CDE770BD676666664A
:102DC000001A002010B54FF48063002201214FF05B
:102DD000904000F0C9FE4FF48053002201214FF0D3
:102DE000904000F0C1FE274C022300220121204622
:102DF00000F0BAFE022303220021204600F0D4FE98
:102E0000042300220121204600F0AEFE0423032209
:102E10000021204600F0C8FE0823002201212046A0
:102E200000F0A2FE082303220021204600F0BCFE91
:102E3000102300220121204600F096FE10230322D9
:102E40000021204600F0B0FE4FF480614FF090402A
:102E500000F082FE4FF480514FF0904000F07EFE73
:102E60000221204600F07AFE0421204600F076FE82
:102E70000821204600F072FE1021204600F06EFE70
:102E800010BD00BF0004004838B504460D464AB3E3
:102E90004FF480514FF0904000F05EFE14F0100FA0
:102EA00027D00221204800F057FE14F0200F25D033
:102EB00004211D4800F050FE14F0400F23D00821DB
:102EC000194800F049FE14F0800F21D11021164856
:102ED00000F044FE0DB34FF480614FF0904000F0DD
:102EE0003BFE38BD4FF480514FF0904000F036FE6D
:102EF000D4E702210C4800F031FED6E704210A484D
:102F000000F02CFED8E70821074800F027FEDAE79A
:102F10001021054800F020FEDCE74FF480614FF0FF
:102F2000904000F01BFEDCE700040048F8B50446C2
:102F3000837863F07F038370038843B18B2B34D095
:102F40000823A3700023238003252846F8BD244FBF
:102F50003970244E327001F0F000234D28700121A9
:102F6000FFF792FF327800212878FFF78DFF327843
:102F700001212878FFF788FF38780001C0B2287057
:102F800032780121FFF780FF327800212878FFF79F
:102F90007BFF327801212878FFF776FF00F040FCB4
:102FA000A0600123E3608B232380A57815F004053E
:102FB0000DD1E168A068FFF7D1F860B1A37823F0E4
:102FC0000103A370A37813F0010FB9D0BDE7042368
:102FD000A3700325B9E7A37843F00103A370F1E7D9
:102FE000FB1A0020FA1A0020FC1A002070B50546D2
:102FF000837863F07F0383700388002B00F0E48103
:10300000B3F5347F00F0CE81082383700023038062
:103010000324204670BD03EB8302B84901EB820212
:1030200096600121117103EB8303B44A02EB830321
:103030005B7813F0010F00F0E1802046FEF7B3FF4C
:103040000134E4B2AE4B1B78DBB29C4280F0DA80F4
:10305000234604EB8402A94901EB8202528892B212
:103060005AB904EB840201EB8202517801F0FB01B2
:103070005170517801F0FD01517003EB83029F49BB
:1030800001EB8202527862B903EB830201EB820208
:10309000517801F0FE0151701279D2B2012ABAD1F1
:1030A000C1E703EB8302954901EB8202527812F0EB
:1030B000040F3AD003EB830201EB82021279D2B201
:1030C000022A06D003EB830201EB82029660022102
:1030D000117103EB8302894901EB8202527812F0ED
:1030E000010F08D103EB830201EB8202517841F01A
:1030F0000101517097E703EB8302804901EB8202E3
:103100009168528811FA82F2B2428CD803EB8302A2
:103110007A4901EB82029660012111710021517000
:10312000517801F0FE0151707DE703EB8302734992
:1031300001EB8202527812F0020F2CD003EB8302D3
:1031400001EB82029168711A5288C2F34E029142D9
:103150007FF669AF03EB8302684901EB8202966058
:103160001279D2B2022A0BD003EB8302634901EB3E
:103170008202517841F0010151700221117152E730
:1031800003EB830201EB8202517801F0FE015170E2
:103190000121117147E703EB8302584901EB8202D9
:1031A000527812F0010F0ED003EB830201EB820282
:1031B0001279D2B2022A06D003EB830201EB82021B
:1031C00096600221117103EB83024C4901EB8202EC
:1031D000527812F0010F7FF426AF03EB830201EB6C
:1031E00082021279D2B2012A3FF41DAF03EB8302AF
:1031F00001EB820296600121117114E72046FEF76F
:10320000DFFE1DE7002410E068B13E4A04EB4403F2
:1032100002EBC3030121197206F5FA7304EB440CA7
:1032200002EBCC02D3600134E4B2374B1B78DBB243
:103230009C4280F0AF802046FEF7E4FEA446314A6F
:1032400004EB4403D90002EBC30350541B7ADBB2F6
:10325000032BE8D801A252F823F000BF093200087E
:103260006D320008CD3200083B330008A8B904EBEA
:103270004403244A02EBC303DB68B3420DD904EBD9
:10328000440302EBC3030221197206F1C80304EBE5
:10329000440C02EBCC02D360C5E70028C3D10CEB91
:1032A0004C03184A02EBC303DB68B342BBD80CEBF8
:1032B0004C0302EBC303012199705E600021197277
:1032C0000CEB4C0302EBC302D160ACE7F0B104EBB2
:1032D00044030C4A02EBC303DB68B34216D904EB88
:1032E000440302EBC3030321197206F1C80304EB84
:1032F000440C02EBCC02D36095E700BF001B00201A
:1033000080200020801D0020812000200CEB4C0339
:10331000344A02EBC303DB68B34284D80CEB4C03A2
:1033200002EBC303022199705E60002119720CEB5D
:103330004C0302EBC302D16075E7B0B904EB440360
:10334000284A02EBC303DB68B3420ED904EB440303
:1033500002EBC303032199705E600021197204EB34
:10336000440302EBC302D1605DE70CEB4C031D4A42
:1033700002EBC303DB68B3423FF655AF0CEB4C03E3
:1033800002EBC303002119720CEB4C0302EBC303E5
:10339000D96048E700F044FAA8601923EB604FF4C5
:1033A00034732B80A87810F0040412D1E968A8685F
:1033B000FEF7D4FE88B1AB7823F00103AB70AB7895
:1033C00013F0010F7FF425AE00F02AFA0646002420
:1033D00038E60423AB7003241BE6AB7843F001030B
:1033E000AB70ECE7801D002000EB4000C000044BF8
:1033F000185CC0B2012814BF00200120704700BF34
:10340000801D002000EB4000024B03EBC000006970
:10341000704700BF801D002000EB4000024B03EB13
:10342000C0004069704700BF801D002000EB800095
:10343000024B03EB8000C068704700BF001B0020F8
:1034400000EB8000024B03EB80000069704700BF77
:10345000001B0020094A00EB800302EB830393F872
:1034600001C00CF0FB0C83F801C093F801C04CF0D4
:10347000020C83F801C05980704700BF001B002078
:1034800030B405460F4A107813780133DBB213705D
:103490000D4A00EB80034FEA830C02EB8303002408
:1034A00002F80C405C705C804FF0010C83F804C0A3
:1034B0009C60DD6000EB800302EB8302116130BC95
:1034C000704700BF80200020001B002010B504467C
:1034D0000D4A107813780133DBB213700B4A00EBFE
:1034E00040034FEAC30E02EBC3034FF0000C02F897
:1034F0000EC083F801C083F808C01C6100EB4003D4
:1035000002EBC302516110BD81200020801D00200C
:1035100010B5002407E02046FEF730FD2046FEF7F8
:103520004FFD0134E4B20A4B1B78DBB29C42F2D36C
:10353000002404E02046FEF750FD0134E4B2054BC0
:103540001B78DBB29C42F5D30348FEF76DFD10BD3E
:103550008020002081200020ED2F000800234380E0
:1035600083800280816070478388B0F800C0634523
:103570000BD24288134493FBFCF20CFB123382689B
:103580009BB2D154838801338380704743888288FB
:103590001344028893FBF2FC02FB1C3382689BB24B
:1035A000D15483880288934202D0013383807047CC
:1035B0004388013393FBF2F102FB113343807047E0
:1035C000034681684288885C0132198892FBF1FCCD
:1035D00001FB1C225A809A88013A9A8070470000A9
:1035E000014B1860704700BF8420002010B5094CC3
:1035F000094B236009480A4B186040220949FFF72C
:10360000ADFF402208492068FFF7A8FF00F0DCF971
:1036100010BD00BF08210020402100204C210020C7
:103620000C210020C82000208820002010B504466E
:10363000837843F08003837002883AB1542A09D01A
:103640000823A37000232380032010BD124A1170A9
:103650005422028013F0040015D1104A1268118818
:103660009288914213D023F00103A370A37813F042
:10367000010FEAD1084B1978084B1868FFF774FF5F
:1036800000F0E2F8DCE70423A3700320DDE743F059
:103690000103A370EAE700BF5E2100200C21002097
:1036A000F8B50446837863F07F03837003883BB1E9
:1036B000D72B14D00823A370002323800320F8BD48
:1036C000194B1A70194B1960194B00221A70184BBC
:1036D0001A78154B1B789A42ECD2D7232380A37813
:1036E00013F0040017D1134A12689288BAB123F07C
:1036F0000103A370A37813F0010FE0D10C4D2E78D5
:103700000A4B1F680B4B1868FFF75AFFB8552B7808
:1037100001332B70DBE70423A3700320CFE743F0D2
:103720000103A370E6E700BF5C21002058210020C0
:103730005D2100200821002010B504460AE0074B57
:103740001868028883889A42F9D00134FFF70CFF89
:1037500000F07AF821780029F1D110BD0C21002069
:1037600008B578220068FFF7F9FE08BD10B582B0F1
:10377000042000F00FFC244800F006FC00F01BFCC5
:1037800000F012FC022000F09BFA00F0C3F90420C4
:1037900000F0C8F900F0D0F900F0D6F90024019447
:1037A0000094234628220421022000F0CBFA204670
:1037B00000F086FA4FF4186000F014FB40F6811018
:1037C00000F010FB40F6821000F00CFB40F6831076
:1037D00000F008FB40F6841000F004FB4FF440605A
:1037E00000F000FB032000F0A3FA204600F044FAAA
:1037F000064B074A1360074A1360074A1360074BDA
:103800001C6002B010BD00BF8038010000B4C404C9
:10381000FC000020000100200401002060210020A5
:10382000014B1868704700BF6021002008B5034AAB
:10383000136801331360FEF7A1FC08BD602100206E
:1038400008B500F0EBFA08BD0C4B1B6813F0100F25
:1038500000D0704710B543F01003084A1360084BBE
:103860001868FFF7ADFE0146064B1870064C20465F
:1038700000F02FFB204600F022FB10BDD8190020DD
:103880000C210020652100200044004010B54FF0BD
:103890004023D3F8003413F0200F06D04FF040231C
:1038A000D3F81C3413F0200F1AD14FF04023D3F873
:1038B000003413F0800F1DD04FF04023D3F81C3498
:1038C00013F0800F16D0124B186883889BB91148EB
:1038D00000F0FAFA104A136823F01003136009E0AD
:1038E0000C4800F0FAFAC1B20C4B19700C4B186876
:1038F000FFF74CFE10BDFFF763FE0146094B187041
:10390000044C204600F0E5FA204600F0D8FAF1E732
:103910000C21002000440040D81900206421002020
:10392000082100206521002038B50546262000F03A
:1039300049FB40F6113000F055FA04230022022121
:103940004FF0904000F010F90823002202214FF0C0
:10395000904000F009F90823012211464FF09040F1
:1039600000F022F9042207214FF0904000F037F9CF
:10397000082207214FF0904000F031F9114C294600
:10398000204600F055FA0821204600F06DFA00218B
:10399000204600F072FA0C21204600F07AFA00214D
:1039A000204600F070FA0021204600F078FA204608
:1039B00000F08AFA204600F07DFA204600F075FA01
:1039C00038BD00BF0044004008B54FF46140FFF728
:1039D000ABFF08BD0A22002100F082B8012B2DE9BF
:1039E000F04701D0242B06D900F08EF8162303608F
:1039F0000020BDE8F087DFF8E4C00D462E4615F83C
:103A0000014B14F80C7017F00807F7D12D2C32D1A8
:103A10002C780127B51C002B5BD0102B09D1302C42
:103A200007D12C7804F0DF04582C4DD16C7810238A
:103A3000023507F1004808F1FF384FF0000CB8FBE1
:103A4000F3F9664603FB198AA4F1300EBEF1090FA3
:103A500016D87446A34224DDBCF1000F1EDBB1452D
:103A60001CD301D1A24519DB06FB03464FF0010C24
:103A700015F8014BE8E72B2C04BF2C78B51CCAE7DE
:103A8000A4F1410EBEF1190F01D8373CE2E7A4F1D1
:103A9000610EBEF1190F04D8573CDBE74FF0FF3C35
:103AA000E6E7BCF1000F05DA22230360464642B97F
:103AB00030469EE707B17642002AF9D0BCF1000FEC
:103AC00000D0691E1160F3E73024002BB1D1082328
:103AD000AFE7302CA5D00A23ABE700BF7640000843
:103AE00013460A46014602480068FFF777BF00BF49
:103AF00098000020034BC35C03F00303022B08BFB4
:103B00002038704776400008014B1868704700BFA6
:103B100098000020024A136843F4807313607047D2
:103B200000200240034A136823F007031843106083
:103B3000704700BF00200240024A136843F48063CC
:103B40001360704700200240024A136843F4007378
:103B50001360704700200240816170470904816151
:103B600070470069084070472DE9F0410568C46856
:103B700000264FF0030E43FA06F7FF070DD5770036
:103B80000EFA07FC01FA07F825EA0C0524EA0C04F2
:103B900002FA07F748EA05053C430136102EEAD140
:103BA0000560C460BDE8F081012941680CBF19437C
:103BB0009943F0B5416081680024032643FA04F577
:103BC000ED0707D5650006FA05F721EA070102FAB5
:103BD00005F529430134102CF0D18160F0BDF0B51A
:103BE000076A466A00234FF00F0C42FA03F4E50718
:103BF00007D59D000CFA05F427EA040701FA05F53C
:103C00002F430133082BF0D100234FF00F0C03F1A9
:103C1000080442FA04F4E40707D59C000CFA04F502
:103C200026EA050601FA04F426430133082BEED1F7
:103C300007624662F0BD0000CA4008B502F0030208
:103C40000A4B022A9B680BD0032A0BD0012A06D10B
:103C5000C3F3031000F0D4F8054B1B68584308BDAC
:103C60000448FCE74FF40040F9E700BF00100240B1
:103C7000FC0000200024F400032808D8DFE800F04E
:103C8000160F08020D4A936813F00C0FFBD1704712
:103C90000A4A9368C3F38103012BFAD17047074A9C
:103CA0009368C3F38103022BFAD17047034A9368E8
:103CB000C3F38103032BFAD1704700BF0010024009
:103CC000062831D8DFE800F0040A0F141921290072
:103CD000164A136843F0807313607047134A1368E1
:103CE00043F48033F8E7114A136843F48073F3E731
:103CF0000E4A136843F00103EEE70C4AD2F8903005
:103D000043F00103C2F890307047084AD2F894306B
:103D100043F00103C2F894307047044AD2F8983057
:103D200043F00103C2F89830704700BF0010024012
:103D3000034A936823F0030318439060704700BF61
:103D40000010024010B5039C0139640644EA0114D6
:103D50002043029C40EA4450034343EA0222024BC0
:103D600042F08072DA6010BD00100240164A9042A4
:103D7000034602F5C83206D1D2F88820134B0A2137
:103D80001868FFF759BF1249884204D1D2F8882039
:103D9000104B0021F4E70D4908680F498B4203D10D
:103DA000D2F888200221ECE70C498B4203D1D2F8EB
:103DB00088200421E5E70A49D2F888208B420CBF0D
:103DC00006210821DDE700BF00800040000100203F
:103DD0000038014004010020004400400048004039
:103DE000004C0040430903F1804303F5043300F025
:103DF0001F001968012202FA00F00843186070479A
:103E000007284FF0010307D90B2894BF073806385D
:103E100003FA00F080B2704718467047034AD2F8A0
:103E2000003843F00403C2F8003870470000065021
:103E300038B50D460446FFF799FF0A4A94424FEA07
:103E4000550303BFB0FBF5F105FB110203EB0222A2
:103E50001B1806BFB2FBF5F303EB0123B3FBF5F32D
:103E6000E36038BD00800040036808290CBF23F4DC
:103E7000805343F4805303607047436823F44053F6
:103E8000194341607047036823F4C063194301601C
:103E90007047036823F00C0319430160704783687F
:103EA00023F44073194381607047036843F00103B2
:103EB00003607047036843F02003036070470368A2
:103EC00043F0800303607047036823F080030360BE
:103ED0007047C1F3080181627047406AC0F308006F
:103EE0007047FEE77047000038B51D4A1D4B1E495C
:103EF0008B4220D31D4A0021934221D34FF0E0236F
:103F00001B4CD3F8142D1B4D42F40072C3F8142D32
:103F1000D3F8882D42F47002C3F8882DAC4212D336
:103F2000154C164DAC4212D3FEF7B6F9144C154D94
:103F3000AC4210D338BD52F8040B43F8040BD7E75A
:103F400043F8041BD8E754F8043B9847E6E754F8D5
:103F5000043B9847E6E754F8043B9847E8E700BF7E
:103F6000784100080000002008010020682100209E
:103F7000784100087841000878410008784100083D
:103F800078410008784100084FF0E02320F07F409E
:103F9000586170474FF0E02200F00400136923F0ED
:103FA00004030343136170474FF0E022136943F0A9
:103FB0000203136170474FF0E022136943F00103DD
:103FC00013617047054B420903EB820300F01F00A9
:103FD000012202FA00F01860704700BF00E100E023
:103FE0000A7372632F6D375F6170702E632C2062CD
:103FF00075696C74206F6E204170722032382032E7
:104000003032332061742031363A34313A34350A53
:1040100000000000206D7300436F6E6669726D20B2
:1040200077697468202A00004C44322000000000A8
:104030004C454430000000004C4544310000000075
:104040004C454432000000004C4544330000000061
:10405000207072657373204420746F2065646974E6
:1040600000000000202020202020202020232323C7
:1040700023206D73000020202020202020202028D5
:104080002828282820202020202020202020202010
:104090002020202020208810101010101010101048
:1040A0001010101010100404040404040404040488
:1040B0001010101010101041414141414101010107
:1040C00001010101010101010101010101010101E0
:1040D00001101010101010424242424242020202ED
:1040E00002020202020202020202020202020202B0
:1040F000021010101020000000000000000000005E
:1041000000000000000000000000000000000000AF
:10411000000000000000000000000000000000009F
:10412000000000000000000000000000000000008F
:10413000000000000000000000000000000000007F
:10414000000000000000000000000000000000006F
:10415000000000000000000000000000000000005F
:10416000000000000000000000000000000000004F
:08417000000000000000000047
:104178002020202020202020202020202020202037
:104188002840000830400008384000084040000837
:1041980048400008E8030000E8030000E8030000C6
:1041A800E8030000E8030000202020202020202031
:1041B8002020202020202020E8030000E803000021
:1041C800E8030000E8030000424F4C4446454152D2
:1041D8004C455353434F4E464944454E5400000006
:1041E800424F4C44464541524C455353434F4E462B
:1041F8004944454E540000006440000850400008FF
:10420800E80300005F5F5F5F9C0000200000000083
:104218000000000000000000000000000000000096
:104228000000000000000000000000000000000086
:104238000000000000000000000000000000000076
:104248000000000000000000000000000000000066
:104258000000000000000000000000000000000056
:1042680000000000000000000000000000093D0000
:0842780000093D0000093D00B2
:0400000508003EE9C8
:00000001FF
