:020000040800F2
:1000000000800220D1230008CD230008CB23000864
:10001000CB230008CB230008CB23000800000000FE
:10002000000000000000000000000000CD230008D8
:10003000CD23000800000000CD230008391E000871
:10004000CB230008CB230008CB230008CB230008D8
:10005000CB230008CB230008CB230008CB230008C8
:10006000CB230008CB230008CB230008CB230008B8
:10007000CB230008CB230008CB230008CB230008A8
:10008000CB230008CB230008CB230008CB23000898
:10009000CB230008CB230008CB230008CB23000888
:1000A000CB230008CB230008CB230008CB23000878
:1000B000CB230008CB230008CB230008CB23000868
:1000C000CB230008CB230008CB230008CB23000858
:1000D000CB230008CB230008991E0008CB2300087F
:1000E000CB230008CB230008CB230008CB23000838
:1000F000CB230008CB230008CB230008CB23000828
:10010000CB230008CB230008CB230008CB23000817
:10011000CB230008CB230008CB230008CB23000807
:10012000CB230008CB230008CB230008CB230008F7
:10013000CB230008CB230008CB230008CB230008E7
:10014000CB230008CB230008CB230008CB230008D7
:10015000CB230008CB230008CB230008CB230008C7
:10016000CB230008CB230008CB230008CB230008B7
:10017000CB230008CB230008CB230008CB230008A7
:10018000CB230008CB230008CB230008CB23000897
:10019000CB230008CB230008CB230008CB23000887
:1001A000CB230008CB230008CB23000838B5044636
:1001B000837863F07F0383700388A3B16C2B20D016
:1001C00008238370002303800325284638BD0423B9
:1001D000A3700325F9E7A37843F00103A370A37884
:1001E00013F0010FF1D102214FF0904001F027FFF1
:1001F00001F01CFEA0600A4B1B685B08E3606C23E7
:100200002380A07810F00405E1D1E168A06801F036
:10021000B9FB0028DFD0A37823F00103A370DEE749
:100220000000002038B50446837863F07F038370B4
:100230000388A3B1782B20D0082383700023038088
:100240000325284638BD0423A3700325F9E7A378C6
:1002500043F00103A370A37813F0010FF1D1012142
:100260004FF0904001F0EBFE01F0E0FDA0600A4B82
:100270001B685B08E36078232380A07810F00405F6
:10028000E1D1E168A06801F07DFB0028DFD0A37810
:1002900023F00103A370DEE70400002038B5044614
:1002A000837863F07F0383700388A3B1842B1FD00E
:1002B00008238370002303800325284638BD0423C8
:1002C000A3700325F9E7A37843F00103A370A37893
:1002D00013F0010FF1D180210D4801F0B0FE01F0C3
:1002E000A5FDA0600B4B1B685B08E36084232380A3
:1002F000A07810F00405E2D1E168A06801F042FBAB
:100300000028E0D0A37823F00103A370DFE700BF4B
:10031000000800480800002038B50446837863F0E0
:100320007F0383700388A3B1912B20D008238370AF
:10033000002303800325284638BD0423A37003252A
:10034000F9E7A37843F00103A370A37813F0010F3A
:10035000F1D14FF480710D4801F071FE01F066FD9E
:10036000A0600B4B1B685B08E36091232380A0789F
:1003700010F00405E1D1E168A06801F003FB00285A
:10038000DFD0A37823F00103A370DEE70008004864
:100390000C00002038B50446837863F07F03837037
:1003A0000388A3B19C2B20D00823837000230380F3
:1003B0000325284638BD0423A3700325F9E7A37855
:1003C00043F00103A370A37813F0010FF1D12021B2
:1003D0004FF0904001F033FE01F028FDA0600A4B81
:1003E0001B685B08E3609C232380A07810F0040561
:1003F000E1D1E168A06801F0C5FA0028DFD0A37858
:1004000023F00103A370DEE74000002038B5044666
:10041000837863F07F0383700388002B00F0658787
:10042000B3F5C47F01F22781BD2BC1F02481BD3B10
:10043000CB2B01F22081DFE813F0E200FD001E0962
:100440001E091E091E091E091E091E091E091E0974
:10045000A601C1011E091E091E091E091E091E0949
:100460001E091E091D0238021E091E091E091E0949
:100470001E091E091E091E091E091E091E09B302B6
:10048000CE021E091E091E091E091E091E091E098B
:100490001E091E091E091E09570372031E091E09A3
:1004A0001E091E091E091E091E091E091E091E0914
:1004B0001E09DA03F5031E091E091E091E091E097D
:1004C0001E091E091E091E091E091E096E048A0442
:1004D0001E091E091E091E091E091E091E091E09E4
:1004E0001E091E091E091E091E09580176011E0952
:1004F0001E091E091E091E091E091E0906052205E0
:100500001E091E091E091E091E091E091E091E09B3
:1005100071058D051E091E091E091E091E091E09E9
:100520001E09DB05F7051E091E091E091E091E0905
:100530001E091E09390655061E091E091E091E0937
:100540001E091E091E099606B2061E091E091E096D
:100550001E091E091E091E091E091E091E091E0963
:100560001E091E091E091E091E091E091E091E0953
:100570001E091E091E09080724071E091E091E0957
:100580001E091E091E091E091E091E091E091E0933
:100590001E098707A3071E091E091E091E091E0939
:1005A0001E091E09E307FF071E091E091E091E0971
:1005B0001E091E094F086B081E091E091E091E0987
:1005C000C408DF081E091E091E0947071E091E0967
:1005D00020019E49180101EB031231250D503021F5
:1005E00051609160D1600133994A1370984B1B7828
:1005F000042BEED9974B01221A70BD232380A378D8
:1006000013F004054CD1944A126812F0080F4CD133
:1006100023F00103A370A37813F0010F41F01C80B5
:100620008D4A136843F0080313608C4B00221A8034
:10063000BE232380A57815F004053AD1012288490C
:10064000864801F033FB022838D9A37823F0010350
:10065000A370A37813F0010F40F0FE877E4A136861
:1006600023F0080313607E4B1B7863BBA37803F071
:100670007F03A3704FF4C4732380A37813F00405A1
:1006800040F0F08713F0800F40F0F08743F0010353
:10069000A370A37813F0010F00F0278600F0DCBFF1
:1006A0000423A370032500F0D7BF43F00103A37018
:1006B000B1E70423A370032500F0CEBFA37843F075
:1006C0000103A370C5E74FF40051664801F0B4FC84
:1006D000002840F0A985624B1B78532B51D04C2B3E
:1006E00040F0038640F215132380A37813F004052D
:1006F00040F09383584A126812F0080F40F092833A
:1007000023F00103A370A37813F0010F40F0A48736
:10071000514A136843F008031360504B00221A80BB
:100720004FF48B732380A57815F0040540F07E8389
:1007300001224D49494801F0B9FA022840F27B8371
:10074000A37823F00103A370A37813F0010F40F006
:100750008387414A136823F00803136042490B78EA
:10076000424AA2FB0302520902EB4202A3EB02132C
:10077000DBB20B70002B40F0BC83354B00221A70AB
:10078000A1E3C8232380A37813F004054BD1324A98
:10079000126812F0080F4BD123F00103A370A37865
:1007A00013F0010F40F058872B4A136843F00803F9
:1007B00013602A4B00221A80C9232380A57815F0E4
:1007C000040539D101222849244801F06FFA022892
:1007D00037D9A37823F00103A370A37813F0010F96
:1007E00040F03A871C4A136823F0080313601E493F
:1007F0000B781E4AA2FB0302520902EB4202A3EB52
:100800000213DBB20B70002B75D0012B00F00981B5
:10081000022B00F0AA81032B00F02A82042B00F0A7
:10082000BC8200F062BD0423A370032500F014BF56
:1008300043F00103A370B2E70423A370032500F083
:100840000BBFA37843F00103A370C6E75800002054
:1008500054000020560000200C190020A819002088
:10086000550000200008004850000020ABAAAAAAAA
:10087000D2232380A37813F004057CD18F4A126819
:1008800012F0080F7CD123F00103A370A37813F0BA
:10089000010F40F0E186894A136843F008031360B2
:1008A000874B00221A80D3232380A57815F00405F6
:1008B0006AD101228349824801F0F8F9022868D9F7
:1008C000A37823F00103A370A37813F0010F40F085
:1008D000C3867A4A136823F0080313607A4B1A78A8
:1008E0007A490B7803EB820276480578784840F81D
:1008F000225001330B70754B1B78032BB8D9724B08
:100900001878734B020103EB00109D58714AA2FB4B
:100910000513590901EB4103A5EB03114568A2FB3F
:1009200005C35B0903EB4303A5EB0313642505FB38
:1009300003F34FF47A7505FB01338568A2FB05C10B
:10094000490901EB4101A5EB011101EB810103EB29
:100950004103C168A2FB0102520902EB4202A1EB72
:10096000021213445C4A136000235C4A1370574A16
:10097000137000F0A2BC0423A370032500F06CBE2A
:1009800043F00103A37081E70423A370032500F063
:1009900063BEA37843F00103A37095E7DF232380B0
:1009A000A37813F0040576D1444A126812F0080FB8
:1009B00076D123F00103A370A37813F0010F40F068
:1009C0004B863E4A136843F0080313603C4B0022F9
:1009D0001A80E0232380A57815F0040564D1012254
:1009E0003849374801F062F9022862D9A37823F028
:1009F0000103A370A37813F0010F40F02D862F4A56
:100A0000136823F0080313602F4B1A782F490B78D3
:100A100003EB82022B4805782D4840F82250013321
:100A20000B702A4B1B78032BB8D9274B1878284B0F
:100A3000020103EB00109D58264AA2FB0513590939
:100A400001EB4103A5EB03114568A2FB05C35B095C
:100A500003EB4303A5EB0313642505FB03F34FF4FA
:100A60007A7505FB01338568A2FB05C1490901EBD5
:100A70004101A5EB011101EB810103EB4103C168C9
:100A8000A2FB0102520902EB4202A1EB0212134443
:100A9000134A136068E70423A370032500F0DCBD4C
:100AA00043F00103A37087E70423A370032500F03C
:100AB000D3BDA37843F00103A3709BE70C1900207A
:100AC000A8190020520000205000002054000020EF
:100AD00058000020ABAAAAAA000000205500002060
:100AE00004000020EC232380A37813F0040569D1CF
:100AF0007F4A126812F0080F69D123F00103A37036
:100B0000A37813F0010F40F0A785794A136843F0EA
:100B100008031360774B00221A80ED232380A57809
:100B200015F0040557D101227349724801F0BEF84F
:100B3000022855D9A37823F00103A370A37813F0FA
:100B4000010F40F089856A4A136823F00803136097
:100B50006A4B1A786A490B7803EB8202664805787B
:100B6000684840F8225001330B70654B1B78032B0B
:100B7000B8D9624B1978634B0A0103EB01119B58FA
:100B80003022B3FBF2F002FB10304B68B3FBF2F5FE
:100B900002FB1533642505FB03F34FF47A7505FB5F
:100BA00000338868B0FBF2F502FB15000A2505FB4F
:100BB0000033C968B1FBF2F002FB10121344524A31
:100BC0001360D1E60423A370032500F045BD43F074
:100BD0000103A37094E70423A370032500F03CBD38
:100BE000A37843F00103A370A8E7F9232380A37837
:100BF00013F0040569D13E4A126812F0080F69D15A
:100C000023F00103A370A37813F0010F40F02485B3
:100C1000374A136843F008031360364B00221A80EA
:100C2000FA232380A57815F0040557D10122324913
:100C3000304801F03BF8022855D9A37823F001038E
:100C4000A370A37813F0010F40F00685284A1368BB
:100C500023F008031360294B1A7829490B7803EB1A
:100C6000820225480578274840F8225001330B704E
:100C7000234B1B78032BB8D9204B1978214B0A0141
:100C800003EB01119B583022B3FBF2F002FB103052
:100C90004B68B3FBF2F502FB1533642505FB03F348
:100CA0004FF47A7505FB00338868B0FBF2F502FB60
:100CB00015000A2505FB0033C968B1FBF2F002FB01
:100CC00010121344114A13604EE60423A370032547
:100CD00000F0C2BC43F00103A37094E70423A370A7
:100CE000032500F0B9BCA37843F00103A370A8E783
:100CF0000C190020A81900205200002050000020EC
:100D00005400002058000020080000200C000020A3
:100D10004FF483732380A37813F004056AD1AC4A9F
:100D2000126812F0080F6AD123F00103A370A378B0
:100D300013F0010F40F09084A54A136843F00803B4
:100D40001360A44B00221A8040F207132380A57879
:100D500015F0040557D101229F499E4800F0A6FFD7
:100D6000022855D9A37823F00103A370A37813F0C8
:100D7000010F40F07184964A136823F00803136052
:100D8000964B1A7896490B7803EB820292480578C5
:100D9000944840F8225001330B70914B1B78032B81
:100DA000B6D98E4B19788F4B0A0103EB01119B5872
:100DB0003022B3FBF2F002FB10304B68B3FBF2F5CC
:100DC00002FB1533642505FB03F34FF47A7505FB2D
:100DD00000338868B0FBF2F502FB15000A2505FB1D
:100DE0000033C968B1FBF2F002FB101213447E4AD3
:100DF0001360B9E50423A370032500F02DBC43F074
:100E00000103A37093E70423A370032500F024BC1F
:100E1000A37843F00103A370A8E70423A37003257C
:100E200000F01ABC43F00103A3706CE40423A37028
:100E3000032500F011BCA37843F00103A37083E401
:100E40004FF48F732380A37813F0040540D1604AD8
:100E5000126812F0040F3FD123F00103A370A378AE
:100E600013F0010F40F0F883594A136843F004036C
:100E700013605E4B00221A8040F21F132380A57876
:100E800015F004052CD1554B1A78554B1B7803EB04
:100E90008203544A12F82310544800F0CDFE022871
:100EA00022D9A37823F00103A370A37813F0010FD4
:100EB00040F0D283464A136823F004031360484A83
:100EC000137801331370464B1B78032BB8D94BE5CD
:100ED0000423A3700325BFE343F00103A370BEE71F
:100EE0000423A3700325B7E3A37843F00103A370A1
:100EF000DBE7012B0BD0022B66D0032B00F0D28056
:100F0000042B40F0F281364B00221A706BE1344B17
:100F100000221A7042E04FF494732380A37813F0F8
:100F2000040540D12A4A126812F0040F3FD123F081
:100F30000103A370A37813F0010F40F08D83244ABE
:100F4000136843F004031360284B00221A8040F218
:100F500029132380A57815F004052CD11F4B1A788E
:100F60001F4B1B7803EB82031E4A12F823101F4805
:100F700000F062FE022822D9A37823F00103A370B7
:100F8000A37813F0010F40F06783114A136823F030
:100F900004031360124A137801331370104B1B784B
:100FA000032BB8D9E0E40423A370032554E343F0F2
:100FB0000103A370BEE70423A37003254CE3A378C9
:100FC00043F00103A370DBE7054B00221A704FE0EA
:100FD0000C190020A8190020520000205000002009
:100FE000540000205800002040000020C0190020BC
:100FF000A37813F0040544D1864A126812F0040F56
:1010000043D123F00103A370A37813F0010F40F044
:101010002383804A136843F0040313607E4B00224D
:101020001A804FF499732380A57815F0040530D108
:101030007A4B1A787A4B1B7803EB8203794A12F8C1
:101040002310754800F0F8FD022826D9A37823F074
:101050000103A370A37813F0010F40F0FD826D4AE5
:10106000136823F0040313606D4A1378013313707F
:101070006B4B1B78032B3FF677AC40F23113238088
:10108000B6E70423A3700325E6E243F00103A3704F
:10109000BAE70423A3700325DEE2A37843F001033B
:1010A000A370D7E75E4B00221A703FE0A37813F0DD
:1010B000040544D1574A126812F0040F43D123F0BB
:1010C0000103A370A37813F0010F40F0C582514AC9
:1010D000136843F0040313604F4B00221A8040F260
:1010E0003B132380A57815F0040530D14B4B1A78BB
:1010F0004B4B1B7803EB82034A4A12F823104648F5
:1011000000F09AFD022826D9A37823F00103A370EA
:10111000A37813F0010F40F09F823E4A136823F03A
:10112000040313603E4A1378013313703C4B1B7861
:10113000032B3FF619AC4FF49D732380B6E70423CD
:10114000A370032588E243F00103A370BAE70423E8
:10115000A370032580E2A37843F00103A370D7E7CF
:1011600040F243132380A37813F0040541D1294AA8
:10117000126812F0040F40D123F00103A370A3788A
:1011800013F0010F40F06882224A136843F0040311
:101190001360214B00221A804FF4A2732380A5789C
:1011A00015F004052DD11D4B1A781D4B1B7803EB50
:1011B00082031C4A12F82310174800F03DFD022854
:1011C00023D9A37823F00103A370A37813F0010FB0
:1011D00040F042820F4A136823F004031360104A60
:1011E0001378013313700E4B1B78032BB8D9FFF71C
:1011F000BBBB0423A37003252EE243F00103A370BD
:10120000BDE70423A370032526E2A37843F001037E
:10121000A370DAE70C190020C0190020500000204C
:1012200054000020580000204FF40061994800F05D
:1012300003FF002874D0984B1A78984BD35C13F0B6
:10124000070F52D040F25B132380A37813F00405FC
:1012500055D1934A126812F0040F54D123F00103C0
:10126000A370A37813F0010F40F0F6818C4A136845
:1012700043F0040313608B4B00221A804FF4AE73CB
:101280002380A57815F0040541D1834B1978854852
:1012900000F0D2FC02283ED9A37823F00103A3700A
:1012A000A37813F0010F40F0D7817D4A136823F033
:1012B00004031360784B00221A70A37803F07F03B5
:1012C000A37040F285132380A37813F0040540F047
:1012D000C08113F0800F40F0C18143F00103A3707F
:1012E000A37813F0010F40F0B7816F4B1B78002BF0
:1012F0007FF480A96D4B00221A70FFF777B90423A1
:10130000A3700325A8E143F00103A370A9E7042318
:10131000A3700325A0E1A37843F00103A370BFE706
:101320004FF480615B4800F087FE002858D05A4B8C
:101330001B785A4A9A5C02F00302022A3DD05C4AAA
:10134000137040F269132380A37813F0040536D19B
:10135000534A126812F0040F35D123F00103A37031
:10136000A37813F0010F40F077814D4A136843F0E2
:10137000040313604B4B00221A804FF4B573238093
:10138000A57815F0040522D1494B1978454800F09D
:1013900053FC02281FD9A37823F00103A370A3787C
:1013A00013F0010F40F058813D4A136823F0040305
:1013B0001360394B00221A707FE7203BBFE70423FC
:1013C000A370032548E143F00103A370C8E7042399
:1013D000A370032540E1A37843F00103A370DEE787
:1013E0004FF400712B4800F027FE002864D02A4BF0
:1013F000187800F0F7F92F4B18704FF4B973238069
:10140000A37813F0040534D1254A126812F0040FB2
:1014100033D123F00103A370A37813F0010F40F040
:101420001B811F4A136843F0040313601D4B002205
:101430001A8040F273132380A57815F0040520D19B
:101440001C4B1978174800F0F7FB02281DD9A37828
:1014500023F00103A370A37813F0010F40F0FC8088
:101460000F4A136823F0040313600B4B00221A7019
:1014700023E70423A3700325EEE043F00103A370E8
:10148000CAE70423A3700325E6E0A37843F0010331
:10149000A370E0E70004004855000020FA2400088B
:1014A0000C190020C0190020560000205400002014
:1014B000A8000020530000204FF48071714800F014
:1014C000BBFD002852D0704B187800F0A5F96F4B87
:1014D00018704FF4BD732380A37813F0040534D142
:1014E0006B4A126812F0040F33D123F00103A3708A
:1014F000A37813F0010F40F0AF80654A136843F002
:1015000004031360634B00221A8040F27B13238094
:10151000A57815F0040520D15C4B19785D4800F0E2
:101520008BFB02281DD9A37823F00103A370A378B5
:1015300013F0010F40F09080554A136823F0040324
:101540001360514B00221A70B7E60423A3700325E1
:1015500082E043F00103A370CAE70423A3700325CC
:101560007AE0A37843F00103A370E0E74FF4005161
:10157000494800F061FD00283FF49FAE4FF4006140
:10158000404800F059FD00287FF497AE4FF4806189
:101590003C4800F051FD00287FF48FAE4FF40071FD
:1015A000384800F049FD00287FF487AE4FF4807181
:1015B000344800F041FD00287FF47FAE4FF4C07343
:1015C0002380A37813F0040532D1314A126812F057
:1015D000040F31D123F00103A370A37813F0010F9E
:1015E0003AD12B4A136843F004031360294B0022BD
:1015F0001A8040F281132380A57815F004051FD1CD
:10160000214B1978234800F017FB02281CD9A37836
:1016100023F00103A370A37813F0010F1CD11C4A1F
:10162000136823F004031360174B00221A7044E67A
:101630000423A37003250FE043F00103A370CCE75C
:101640000423A370032507E0A37843F00103A370EC
:10165000E1E70423A3700325284638BD23F00103E6
:10166000A3703DE60423A3700325F5E723F00103EF
:10167000A370FFF70EB80823A3700023238003256F
:10168000EAE700BF00040048550000205100002098
:101690000C190020C01900200008004810B50020D7
:1016A00000F014FE4FF4006000F010FE4FF4806074
:1016B00000F00CFE244C4FF400530022114620464B
:1016C00000F0C6FC2023002201214FF0904000F0E2
:1016D000BFFC0223002201214FF0904000F0B8FC33
:1016E0000123002219464FF0904000F0B1FC802306
:1016F00000220121204600F0ABFC4FF48073002251
:101700000121204600F0A4FCA4F580644FF400639E
:1017100000221146204600F09BFC4FF4806300221B
:101720001146204600F094FC4FF40073002211464D
:10173000204600F08DFC4FF48073002211462046B5
:1017400000F086FC10BD00BF0008004808B5FFF798
:10175000A5FF0B4800F0F6FA0A4800F079F80A48AD
:1017600000F076F8094800F073F8094800F070F8C6
:10177000084800F06DF8084800F06AF808BD00BF9E
:10178000C82400080D040008AD0100082502000867
:101790009D0200081903000895030008074B1878FC
:1017A000002305E0591C054A515CD1540133DBB2DA
:1017B0001A46142BF6D9014B98547047100000209C
:1017C000074B1878002305E0591C054A515CD15499
:1017D0000133DBB21A46132BF6D9014B98547047EC
:1017E0002800002010B500F0FBFB094B1B7853FAD2
:1017F00080F0084B83FB0023DB101A2202FB13034B
:10180000DCB24134E4B2FFF7C9FF204610BD00BF8F
:10181000100000204FECC44E10B500F0E1FB0A4B65
:101820001A78C3B29B1A1A33084A82FB0312D817DC
:10183000C0EBE2001A2202FB1030C4B24134E4B221
:10184000FFF7BEFF204610BD280000204FECC44E1D
:1018500030B5334B1D781F2D03D80024A6462346F0
:1018600003E000203AE00133DBB21F2B37D803EB53
:1018700043022C4901EBC2025268824206D0002C7E
:10188000F1D1002AEFD19E460124ECE7254A03EB73
:101890004301CC0002EBC10100201053887049695C
:1018A0000968888020494B5501351D490D700EEBA4
:1018B0004E0102EBC102128A5AB91C490A88013250
:1018C00092B20A800EEB4E0E164901EBCE0EAEF828
:1018D000102003EB4303134800EBC30030BDE4B119
:1018E000104B0EEB4E02D40003EBC20250600021FD
:1018F000195391705069006881800B4901F805E027
:10190000013507490D7009480188013189B201800C
:1019100011820EEB4E0E1046E0E70020DEE700BF1E
:1019200019190020EC060020EC09002016190020EF
:10193000002301E00133DBB20E4A12789A4217D934
:101940009C460D4AD25CFD2AF4D802EB42020B49B8
:1019500001EBC20252688242ECD1074BFE2203F82F
:101960000C20074A136843F00103136001207047FD
:101970000020704719190020EC090020EC06002017
:101980000C19002038B504460D4600F04FFA031B31
:10199000A04200D2013BAB4201D9012038BD00205A
:1019A000FCE7000038B5134B1D78002403E0013D2F
:1019B000EDB20134E4B2E5B10123A3400E49096858
:1019C0000B42F6D004EB44018B000C4919448B68A0
:1019D000013B8B60002BEAD1084904EB44008300F3
:1019E0000B445868986004EB44029300CB58984726
:1019F000DDE738BD14190020101900202C06002046
:101A000010B5002423E004EB4403DA00214B134417
:101A100000215960204AFF20105504EB4402D000F9
:101A20001E4A024451601E4A02EBC400586104EB96
:101A3000440399001B4B0B4442F83430C4EB0412AE
:101A4000D3001949194400F091F90134E4B21F2C74
:101A5000D9D90023154A13600F2B08D803EB430193
:101A60008A001349002088500133DBB2F4E70023D9
:101A7000104A1370104A1370104A1370202000F09F
:101A8000B5F800F0E3F900F077F900F0B5F8FFF7EA
:101A90005DFE10BDEC060020EC090020AC0000202B
:101AA0002C050020AC0300200C0A00201019002097
:101AB0002C060020191900201819002014190020E4
:101AC00070B5FFF79DFF234B00221A801CE0013404
:101AD000E4B2B44213D2204B1D5D05EB45031F4811
:101AE00000EBC300436898470328F0D105EB450598
:101AF0001A4B03EBC5056868FFF71AFFE7E7184BB9
:101B00001B6813F0010F03D1164B1E780024E0E789
:101B1000144A1178104A525CFE2A03D099B1013957
:101B2000C9B2F7E74A1CD2B205E0541E0A48855CE8
:101B300005550132D2B2B242F7D3013E064AFF2028
:101B40009055F6B2EAE7074A167023F00103044AFB
:101B50001360D9E716190020EC090020EC060020DC
:101B60000C19002019190020002343808380028073
:101B7000816070478388B0F800C063450BD242880B
:101B8000134493FBFCF20CFB123382689BB2D154DA
:101B90008388013383807047438882881344028896
:101BA00093FBF2FC02FB1C3382689BB2D154838806
:101BB0000288934202D00133838070474388013307
:101BC00093FBF2F102FB11334380704703468168B7
:101BD0004288885C0132198892FBF1FC01FB1C22CF
:101BE0005A809A88013A9A8070470000014B186029
:101BF000704700BF1C19002010B5094C094B236029
:101C000009480A4B186040220949FFF7ADFF4022FE
:101C100008492068FFF7A8FF00F0DCF910BD00BFFD
:101C2000A0190020D8190020E4190020A4190020D0
:101C3000601900202019002010B50446837843F075
:101C40008003837002883AB1542A09D00823A37014
:101C500000232380032010BD124A117054220280F9
:101C600013F0040015D1104A12681188928891422D
:101C700013D023F00103A370A37813F0010FEAD16E
:101C8000084B1978084B1868FFF774FF00F0E2F86A
:101C9000DCE70423A3700320DDE743F00103A37016
:101CA000EAE700BFF6190020A4190020F8B50446A1
:101CB000837863F07F03837003883BB1D72B14D004
:101CC0000823A370002323800320F8BD194B1A704A
:101CD000194B1960194B00221A70184B1A78154BC2
:101CE0001B789A42ECD2D7232380A37813F0040008
:101CF00017D1134A12689288BAB123F00103A37076
:101D0000A37813F0010FE0D10C4D2E780A4B1F6819
:101D10000B4B1868FFF75AFFB8552B7801332B701F
:101D2000DBE70423A3700320CFE743F00103A37094
:101D3000E6E700BFF4190020F0190020F519002093
:101D4000A019002010B504460AE0074B1868028865
:101D500083889A42F9D00134FFF70CFF00F07AF83B
:101D600021780029F1D110BDA419002008B57822EE
:101D70000068FFF7F9FE08BD10B582B0042000F03E
:101D80007DFB244800F074FB00F089FB00F080FB31
:101D9000022000F009FA00F02DF9042000F032F9D9
:101DA00000F03AF900F040F9002401940094234631
:101DB00028220421022000F039FA204600F0F4F92C
:101DC0004FF4186000F082FA40F6811000F07EFABD
:101DD00040F6821000F07AFA40F6831000F076FAAE
:101DE00040F6841000F072FA4FF4406000F06EFA92
:101DF000032000F011FA204600F0B2F9064B074A22
:101E00001360074A1360074A1360074B1C6002B057
:101E100010BD00BF8038010000B4C404440000209D
:101E2000480000204C000020F8190020014B1868E1
:101E3000704700BFF819002008B5034A1368013342
:101E40001360FFF7AFFD08BDF819002008B500F0DA
:101E500059FA08BD0C4B1B6813F0100F00D07047E7
:101E600010B543F01003084A1360084B1868FFF7D9
:101E7000ADFE0146064B1870064C204600F09DFA58
:101E8000204600F090FA10BD0C190020A419002083
:101E9000FD1900200044004010B54FF04023D3F856
:101EA000003413F0200F06D04FF04023D3F81C3439
:101EB00013F0200F1AD14FF04023D3F8003413F061
:101EC000800F1DD04FF04023D3F81C3413F0800F47
:101ED00016D0124B186883889BB9114800F068FA35
:101EE000104A136823F01003136009E00C4800F057
:101EF00068FAC1B20C4B19700C4B1868FFF74CFE16
:101F000010BDFFF763FE0146094B1870044C2046D4
:101F100000F053FA204600F046FAF1E7A419002039
:101F2000004400400C190020FC190020A0190020DA
:101F3000FD19002038B50546262000F0B7FA40F616
:101F4000113000F0C3F90423002202214FF0904029
:101F500000F07EF80823002202214FF0904000F0AC
:101F600077F80823012211464FF0904000F090F8D6
:101F7000042207214FF0904000F0A5F80822072125
:101F80004FF0904000F09FF8114C2946204600F099
:101F9000C3F90821204600F0DBF90021204600F0BB
:101FA000E0F90C21204600F0E8F90021204600F07D
:101FB000DEF90021204600F0E6F9204600F0F8F9AD
:101FC000204600F0EBF9204600F0E3F938BD00BFF1
:101FD0000044004008B54FF46140FFF7ABFF08BD77
:101FE000034BC35C03F00303022B08BF2038704788
:101FF000FA240008024A136843F4807313607047A0
:1020000000200240034A136823F0070318431060BE
:10201000704700BF00200240024A136843F4806307
:102020001360704700200240024A136843F40073B3
:102030001360704700200240006908407047436900
:1020400001EA030221EA030141EA0241816170478A
:102050002DE9F0410568C46800264FF0030E43FAED
:1020600006F7FF070DD577000EFA07FC01FA07F80F
:1020700025EA0C0524EA0C0402FA07F748EA0505EC
:102080003C430136102EEAD10560C460BDE8F08102
:10209000012941680CBF19439943F0B5416081683B
:1020A0000024032643FA04F5ED0707D5650006FA78
:1020B00005F721EA070102FA05F529430134102C3E
:1020C000F0D18160F0BDF0B5076A466A00234FF099
:1020D0000F0C42FA03F4E50707D59D000CFA05F44E
:1020E00027EA040701FA05F52F430133082BF0D145
:1020F00000234FF00F0C03F1080442FA04F4E40744
:1021000007D59C000CFA04F526EA050601FA04F44A
:1021100026430133082BEED107624662F0BD000072
:10212000CA4008B502F003020A4B022A9B680BD092
:10213000032A0BD0012A06D1C3F3031000F0D4F810
:10214000054B1B68584308BD0448FCE74FF40040AA
:10215000F9E700BF00100240440000200024F40012
:10216000032808D8DFE800F0160F08020D4A93682C
:1021700013F00C0FFBD170470A4A9368C3F3810335
:10218000012BFAD17047074A9368C3F38103022BEE
:10219000FAD17047034A9368C3F38103032BFAD142
:1021A000704700BF00100240062831D8DFE800F079
:1021B000040A0F1419212900164A136843F080738A
:1021C00013607047134A136843F48033F8E7114AE9
:1021D000136843F48073F3E70E4A136843F0010376
:1021E000EEE70C4AD2F8903043F00103C2F8903089
:1021F0007047084AD2F8943043F00103C2F8943093
:102200007047044AD2F8983043F00103C2F898307E
:10221000704700BF00100240034A936823F0030395
:1022200018439060704700BF0010024010B5039C37
:102230000139640644EA01142043029C40EA4450F8
:10224000034343EA0222024B42F08072DA6010BD7F
:1022500000100240164A9042034602F5C83206D1E9
:10226000D2F88820134B0A211868FFF759BF12498A
:10227000884204D1D2F88820104B0021F4E70D49A0
:1022800008680F498B4203D1D2F888200221ECE77D
:102290000C498B4203D1D2F888200421E5E70A4992
:1022A000D2F888208B420CBF06210821DDE700BF51
:1022B0000080004048000020003801404C00002011
:1022C0000044004000480040004C0040430903F136
:1022D000804303F5043300F01F001968012202FA5D
:1022E00000F008431860704707284FF0010307D932
:1022F0000B2894BF0738063803FA00F080B2704705
:1023000018467047034AD2F8003843F00403C2F875
:10231000003870470000065038B50D460446FFF7F8
:1023200099FF0A4A94424FEA550303BFB0FBF5F107
:1023300005FB110203EB02221B1806BFB2FBF5F3EB
:1023400003EB0123B3FBF5F3E36038BD00800040ED
:10235000036808290CBF23F4805343F480530360BF
:102360007047436823F44053194341607047036842
:1023700023F4C063194301607047036823F00C0322
:10238000194301607047836823F4407319438160E7
:102390007047036843F0010303607047036843F02C
:1023A000200303607047036843F0800303607047B5
:1023B000036823F0800303607047C1F30801816262
:1023C0007047406AC0F308007047FEE7704700009E
:1023D00038B51D4A1D4B1E498B4220D31D4A002192
:1023E000934221D34FF0E0231B4CD3F8142D1B4D07
:1023F00042F40072C3F8142DD3F8882D42F4700211
:10240000C3F8882DAC4212D3154C164DAC4212D3F2
:10241000FFF756FB144C154DAC4210D338BD52F8A3
:10242000040B43F8040BD7E743F8041BD8E754F830
:10243000043B9847E6E754F8043B9847E6E754F82E
:10244000043B9847E8E700BFFC2500080000002097
:1024500050000020001A0020FC250008FC25000880
:10246000FC250008FC250008FC250008FC250008C8
:102470004FF0E02320F07F40586170474FF0E0229A
:1024800000F00400136923F0040303431361704751
:102490004FF0E022136943F00203136170474FF0DD
:1024A000E022136943F0010313617047054B4209B1
:1024B00003EB820300F01F00012202FA00F0186013
:1024C000704700BF00E100E00A7372632F6D355F53
:1024D0006170702E632C206275696C74206F6E20A1
:1024E0004170722032372032303233206174203113
:1024F000393A31313A34360A000020202020202099
:1025000020202028282828282020202020202020A3
:1025100020202020202020202020881010101010A3
:1025200010101010101010101010040404040404F3
:1025300004040404101010101010104141414141D6
:10254000410101010101010101010101010101013B
:1025500001010101011010101010104242424242CC
:10256000420202020202020202020202020202020B
:1025700002020202021010101020000000000000F1
:10258000000000000000000000000000000000004B
:10259000000000000000000000000000000000003B
:1025A000000000000000000000000000000000002B
:1025B000000000000000000000000000000000001B
:1025C000000000000000000000000000000000000B
:1025D00000000000000000000000000000000000FB
:1025E00000000000000000000000000000000000EB
:0C25F000000000000000000000000000DF
:1025FC00E8030000E8030000E8030000E803000023
:10260C00424F4C44464541524C455353434F4E4622
:10261C004944454E54000000424F4C4446454152FB
:10262C004C455353434F4E464944454E54000000CD
:10263C00E803000000093D0000093D0000093D00D1
:04000005080023D1FB
:00000001FF
