:020000040800F2
:1000000000800220F11B0008ED1B0008EB1B00081C
:10001000EB1B0008EB1B0008EB1B000800000000B6
:10002000000000000000000000000000ED1B0008C0
:10003000ED1B000800000000ED1B0008C1160008C1
:10004000EB1B0008EB1B0008EB1B0008EB1B000878
:10005000EB1B0008EB1B0008EB1B0008EB1B000868
:10006000EB1B0008EB1B0008EB1B0008EB1B000858
:10007000EB1B0008EB1B0008EB1B0008EB1B000848
:10008000EB1B0008EB1B0008EB1B0008EB1B000838
:10009000EB1B0008EB1B0008EB1B0008EB1B000828
:1000A000EB1B0008EB1B0008EB1B0008EB1B000818
:1000B000EB1B0008EB1B0008EB1B0008EB1B000808
:1000C000EB1B0008EB1B0008EB1B0008EB1B0008F8
:1000D000EB1B0008EB1B0008DD160008EB1B0008FB
:1000E000EB1B0008EB1B0008EB1B0008EB1B0008D8
:1000F000EB1B0008EB1B0008EB1B0008EB1B0008C8
:10010000EB1B0008EB1B0008EB1B0008EB1B0008B7
:10011000EB1B0008EB1B0008EB1B0008EB1B0008A7
:10012000EB1B0008EB1B0008EB1B0008EB1B000897
:10013000EB1B0008EB1B0008EB1B0008EB1B000887
:10014000EB1B0008EB1B0008EB1B0008EB1B000877
:10015000EB1B0008EB1B0008EB1B0008EB1B000867
:10016000EB1B0008EB1B0008EB1B0008EB1B000857
:10017000EB1B0008EB1B0008EB1B0008EB1B000847
:10018000EB1B0008EB1B0008EB1B0008EB1B000837
:10019000EB1B0008EB1B0008EB1B0008EB1B000827
:1001A000EB1B0008EB1B0008EB1B000830B583B00D
:1001B0000446444B93E8030000908DF80410A378A4
:1001C00063F07F03A3702388392B00F2AA81DFE854
:1001D00013F0A600A801A801A801A801A801A80180
:1001E000A801A801A801A801A801A801A801A801C7
:1001F000A801A801A801A801A801A801A801A801B7
:10020000A801A801A801A801A801A801A801A801A6
:10021000A801A801A801A801A801A801A801A80196
:10022000A801B500A801A801D800A801A801FA00FA
:10023000A8011A01A8013901A8015801A8017701F4
:10024000A8017B0095000423A37003256EE1A37829
:1002500043F00103A37080E00423A370032565E14C
:10026000A37843F00103A3709BE00423A37003254C
:100270005CE1A37843F00103A370B4E00423A3700E
:10028000032553E1A37843F00103A370CBE00423DB
:10029000A37003254AE1A37843F00103A370E1E0D2
:1002A0000423A370032541E1A37843F00103A37065
:1002B000F7E00423A370032538E1A37843F001039A
:1002C000A3700DE1E81C0008A57815F0040540F0C6
:1002D0001781E168A06800F0D7F9002800F01481C8
:1002E000A37823F00103A370A37813F0010F40F06B
:1002F0001D8103F07F03A37039232380A37813F0BB
:10030000040540F0068113F0800F40F0068143F0B1
:100310000103A370A37813F0010F40F0078100F0F0
:1003200055FF41220021084600F090FF01F0C2F97C
:10033000A0604FF47A73E36028232380A57815F03A
:10034000040580D1E168A06800F09EF900283FF420
:100350007EAFA37823F00103A370A37813F0010FFD
:1003600040F0E48000F032FF6A460021084600F0C9
:100370007BFF01F09FF9A0604FF47A73E3602B23B9
:100380002380A57815F004057FF466AFE168A068C6
:1003900000F07AF900283FF463AFA37823F001035B
:1003A000A370A37813F0010F40F0C08000F00EFF9F
:1003B000002000F0ADFF01F07DF9A0604FF47A73EA
:1003C000E3602E232380A57815F004057FF44DAF5C
:1003D000E168A06800F058F900283FF44AAFA3781C
:1003E00023F00103A370A37813F0010F40F09E8067
:1003F000012000F08DFF01F05DF9A0604FF47A73E9
:10040000E36030232380A57815F004057FF436AF30
:10041000E168A06800F038F900283FF433AFA37812
:1004200023F00103A370A37813F0010F7ED1002005
:1004300000F05EFF01F03EF9A0604FF47A73E360D4
:1004400032232380A57815F004057FF420AFE168FE
:10045000A06800F019F900283FF41DAFA37823F03D
:100460000103A370A37813F0010F5FD1012000F006
:100470003FFF01F01FF9A0604FF47A73E36034236B
:100480002380A57815F004057FF40AAFE168A06821
:1004900000F0FAF800283FF407AFA37823F0010337
:1004A000A370A37813F0010F40D1002000F028FFC3
:1004B00001F000F9A0604FF47A73E36036232380E3
:1004C000A57815F004057FF4F4AEE168A06800F0AB
:1004D000DBF800283FF4F1AEA37823F00103A3700A
:1004E000A37813F0010F21D1012000F009FF01F0E2
:1004F000E1F8A0604FF47A73E36038232380E3E6E9
:100500000423A370032511E0A37843F00103A37033
:10051000EAE60423A370032508E023F00103A37097
:10052000F8E60823A370002323800325284603B0A0
:1005300030BD00BF08B500F06FFE00F03DFE08BD05
:1005400008B5FFF7F7FF024800F004F808BD00BF48
:10055000AD01000830B5334B1D781F2D03D80024A2
:10056000A646234603E000203AE00133DBB21F2B0E
:1005700037D803EB43022C4901EBC2025268824296
:1005800006D0002CF1D1002AEFD19E460124ECE7E1
:10059000254A03EB4301CC0002EBC10100201053BC
:1005A000887049690968888020494B5501351D4983
:1005B0000D700EEB4E0102EBC102128A5AB91C49B2
:1005C0000A88013292B20A800EEB4E0E164901EBF8
:1005D000CE0EAEF8102003EB4303134800EBC3002C
:1005E00030BDE4B1104B0EEB4E02D40003EBC2025F
:1005F00050600021195391705069006881800B4947
:1006000001F805E0013507490D70094801880131FD
:1006100089B2018011820EEB4E0E1046E0E70020F9
:10062000DEE700BF791800204C0600204C090020AE
:1006300076180020002301E00133DBB20E4A127865
:100640009A4217D99C460D4AD25CFD2AF4D802EB97
:1006500042020B4901EBC20252688242ECD1074BC5
:10066000FE2203F80C20074A136843F001031360CD
:100670000120704700207047791800204C090020A5
:100680004C0600206C18002038B504460D4601F0D9
:1006900011F8031BA04200D2013BAB4201D901205B
:1006A00038BD0020FCE7000038B5134B1D7800244E
:1006B00003E0013DEDB20134E4B2E5B10123A34012
:1006C0000E4909680B42F6D004EB44018B000C493B
:1006D00019448B68013B8B60002BEAD1084904EB7D
:1006E000440083000B445868986004EB4402930074
:1006F000CB589847DDE738BD7418002070180020EB
:100700008C05002010B5002423E004EB4403DA003C
:10071000214B134400215960204AFF20105504EB5F
:100720004402D0001E4A024451601E4A02EBC4003B
:10073000586104EB440399001B4B0B4442F83430DE
:10074000C4EB0412D3001949194400F053FF0134DB
:10075000E4B21F2CD9D90023154A13600F2B08D8F7
:1007600003EB43018A001349002088500133DBB2B8
:10077000F4E70023104A1370104A1370104A1370E4
:10078000202000F011FF00F0A5FF00F039FF00F07D
:1007900011FFFFF7D5FE10BD4C0600204C090020CC
:1007A0000C0000208C0400200C0300206C090020A9
:1007B000701800208C05002079180020781800207F
:1007C0007418002070B5FFF79DFF234B00221A809C
:1007D0001CE00134E4B2B44213D2204B1D5D05EBA2
:1007E00045031F4800EBC300436898470328F0D136
:1007F00005EB45051A4B03EBC5056868FFF71AFFC3
:10080000E7E7184B1B6813F0010F03D1164B1E7856
:100810000024E0E7144A1178104A525CFE2A03D003
:1008200099B10139C9B2F7E74A1CD2B205E0541EAA
:100830000A48855C05550132D2B2B242F7D3013E77
:10084000064AFF209055F6B2EAE7074A167023F0F1
:100850000103044A1360D9E7761800204C090020F0
:100860004C0600206C1800207918002038B504468A
:10087000837863F07F0383700388002B00F0AF80E0
:10088000EE2B00F28A844C2BC0F087844C3BA22BC9
:1008900000F28384DFE813F0AB008104810481045B
:1008A0008104810481048104810481048104810420
:1008B0008104810481048104810481048104810410
:1008C0008104810481048104810481048104810400
:1008D000810481048104CC00810481048104F2003C
:1008E00081048104810418018104810481043E0192
:1008F000810481048104640181047E0181048104F6
:1009000081048104810481048104810481048104BF
:1009100081048104810481048104810481048104AF
:10092000810481048104810481048104810481049F
:10093000810481048104810481048104990181047A
:100940008104810481048104B4018104810481044F
:10095000810481048104810481048104CF01810424
:10096000810481048104810481048104EF018104F4
:10097000810481048104810481048104810481044F
:100980007C02810481048104810481048104810446
:10099000810481048104DB02810481040D0381044C
:1009A0003503810481048104580381048104810496
:1009B00081048104810481048104A80381048104E9
:1009C00081048104810481048104E703810481049A
:1009D000160481048104330481048104500400F06E
:1009E00069FEA0604FF4FA73E3604C232380A5787E
:1009F00015F0040540F04C81E168A068FFF744FE63
:100A0000002800F04981A37823F00103A370A378A4
:100A100013F0010F40F0C68300221146302000F091
:100A2000E1FC00F047FEA0600523E3606B23238018
:100A3000A57815F0040540F03481E168A068FFF75F
:100A400023FE002800F03181A37823F00103A37076
:100A5000A37813F0010F40F0A5830022012130207C
:100A600000F0C0FC00221146302000F0BBFC00F07A
:100A700021FEA0600523E3606F232380A57815F095
:100A8000040540F01781E168A068FFF7FDFD00282C
:100A900000F01481A37823F00103A370A37813F06E
:100AA000010F40F07F8300220121302000F09AFCEA
:100AB00000221146302000F095FC00F0FBFDA06004
:100AC0000523E36073232380A57815F0040540F027
:100AD000FA80E168A068FFF7D7FD002800F0F780F2
:100AE000A37823F00103A370A37813F0010F40F063
:100AF000598300220121302000F074FC00221146AD
:100B0000302000F06FFC00F0D5FDA0600523E3600D
:100B100077232380A57815F0040540F0DD80E16897
:100B2000A068FFF7B1FD002800F0DA80A37823F079
:100B30000103A370A37813F0010F40F03383002268
:100B40000121202000F04EFC00221146202000F060
:100B500049FC00F0AFFDA0600123E3607B2323800C
:100B6000A57815F0040540F0C080E168A068FFF7A3
:100B70008BFD002800F0BD80A37823F00103A37053
:100B8000A37813F0010F40F00D83A24B00221A80CE
:100B90007D232380A57815F0040540F0AF80002266
:100BA00028219C4800F070FC022840F2AB80A3781A
:100BB00023F00103A370A37813F0010F40F0F28239
:100BC000944B00221A809E232380A57815F00405FB
:100BD00040F09D80002214218E4800F055FC022830
:100BE00040F29980A37823F00103A370A37813F057
:100BF000010F40F0D782874B00221A80A423238064
:100C0000A57815F0040540F08B8000220C21814866
:100C100000F03AFC022840F28780A37823F0010319
:100C2000A370A37813F0010F40F0BC82794B00222F
:100C30001A80AE232380A57815F0040579D100220F
:100C40000621744800F020FC022876D9A37823F00E
:100C50000103A370A37813F0010F40F0A3826E4B41
:100C60001B78002B00F0828000236B4A1370694AC6
:100C70001380B6232380A57815F0040562D1664B56
:100C80005B78002B62D1644B997841F080015EE083
:100C90000423A370032585E2A37843F00103A37026
:100CA000B5E60423A37003257CE2A37843F0010397
:100CB000A370CDE60423A370032573E2A37843F069
:100CC0000103A370EAE60423A37003256AE2A37874
:100CD00043F00103A37007E70423A370032561E237
:100CE000A37843F00103A37024E70423A370032532
:100CF00058E2A37843F00103A37041E70423A370F3
:100D000003254FE2A37843F00103A37053E70423C4
:100D1000A370032546E2A37843F00103A37065E7BF
:100D20000423A37003253DE2A37843F00103A370DD
:100D300077E70423A370032534E2A37843F001038B
:100D4000A37087E70423A37003252BE24021002230
:100D5000304800F099FB022846D9A37823F001031C
:100D6000A370A37813F0010F40F01C822A4BDB78AC
:100D70002BB9294B5B7913B9274BDB794BB3264A47
:100D80000023D3705371D371224A1380C023238070
:100D9000A57815F004052CD11F4B1B796BB30A23E2
:100DA0001D4A9179002918BF43F00103127A32B32A
:100DB000042100221943174800F066FB022820D9BD
:100DC000A37823F00103A370A37813F0010F40F080
:100DD000E981124B00221A70104B1B78012B15D998
:100DE0000F4B00221A709CE1A37843F00103A3701B
:100DF000B7E70423A3700325D4E10823D0E700213B
:100E0000D7E7A37843F00103A370DDE7054B002289
:100E10001A70ACE07C180020941800208D19002076
:100E2000851900208C190020864B1B7803EB830169
:100E3000854B03EBC10313445B7A002B7ED0824BBE
:100E400001221A70814B00221A80CB232380A578BF
:100E500015F0040540F095807A4B1B78002B00F0CC
:100E6000948040217A4B1B78194349B261F07F018D
:100E70000022C9B2754800F007FB022840F28780C3
:100E8000A37823F00103A370A37813F0010F40F0BF
:100E900089816C4B1B786E4A117803EB83026A4B95
:100EA00003EBC2030B4400225A72684B1A80CE2314
:100EB0002380A57815F004056ED1624B1B78644A37
:100EC000117803EB8302604B03EBC2030B44012256
:100ED00093F859105D4800F0D7FA022860D9A3783A
:100EE00023F00103A370A37813F0010F40F05A819F
:100EF00057490A7801320A7003F07F03A370D023A8
:100F00002380A37813F004054FD113F0800F50D144
:100F100043F00103A370A37813F0010F40F0428166
:100F20004B4B1978474B1B7803EB8302464B03EB83
:100F3000C2030B445B7A0BB12729AAD9A37803F02B
:100F40007F03A370D4232380A37813F0040534D146
:100F500013F0800F35D143F00103A370A37813F091
:100F6000010F40F01F813A4A137801331370384B58
:100F70001A78272A7FF658AF324A13780133137054
:100F80002AE70423A37003250CE100216AE7A37874
:100F900043F00103A37077E70423A370032501E165
:100FA000A37843F00103A3709DE70423A3700325F6
:100FB000F8E023F00103A370ADE70423A370032539
:100FC000F0E023F00103A370C8E71F4A134493F82D
:100FD000A930002B00F08D80134601221A701B4BA4
:100FE00000221A80DD232380A57815F004051FD187
:100FF000184B1978C90041F04001002201F0F801B6
:10100000124800F041FA022816D9A37823F0010310
:10101000A370A37813F0010F40F0C4800D4B1A7831
:10102000094B1344002283F8A9200B4B1A603BE0C4
:101030000423A3700325B5E0A37843F00103A37054
:10104000E7E700BF8D190020941800207C180020CD
:101050008C1900208519002088190020524B00228D
:101060001A80E5232380A57815F0040574D14F4B31
:1010700019784F4B1A684F4B03EBC10313440122FD
:1010800093F8B110484800F0FFF9022868D9A37816
:1010900023F00103A370A37813F0010F40F08280C6
:1010A000434A136801331360414B1B68072BD5DD9E
:1010B0003E4A137801331370A37803F07F03A370C3
:1010C000E8232380A37813F004054ED113F0800F9A
:1010D0004FD143F00103A370A37813F0010F61D146
:1010E000324B1A78334B134493F8A9300BB1072ACB
:1010F00094D9A37803F07F03A370EB232380A37814
:1011000013F0040539D113F0800F3AD143F00103F5
:10111000A370A37813F0010F44D1244A137801334C
:101120001370224B1B78072B7FF64FAFA37803F089
:101130007F03A370EE232380A37813F0040524D14A
:1011400013F0800F25D143F00103A370A37813F0AF
:10115000010F3FF484AD25E00423A370032521E0B3
:10116000A37843F00103A37095E70423A37003253C
:1011700018E023F00103A370AEE70423A370032556
:1011800010E023F00103A370C3E70423A370032539
:1011900008E023F00103A370D8E70823A37000231D
:1011A00023800325284638BD7C180020851900209F
:1011B000881900209418002008B500F0B1F8024802
:1011C000FFF7C8F908BD00BF6D080008002018E04F
:1011D000104A00EB800C4FEACC01114419444FF047
:1011E000200C81F859C000EB800C4FEACC010A4476
:1011F0001A44012151720B44DBB2272BE8D901308C
:10120000C0B2012801D80023F7E7024B01221A706F
:10121000704700BF9418002010B50B4B01221A72C2
:10122000DA7100241C71DA709C715A71FFF7CEFFDD
:10123000234605E0044A1A44002182F8A91001332C
:10124000072BF7D910BD00BF94180020054B00EB09
:10125000800C03EBCC0C8C448CF8592001238CF8C7
:10126000093070479418002070B54FF0000E03E06D
:101270000EF1010E5FFA8EFE12F80E30002BF7D140
:101280001EE00C44184D85FB04654FEAE47CCCEB72
:10129000251C0CEB8C0CA4EBCC0CD65C134C00EB9B
:1012A000800504EBC505654485F8596000EB8005B1
:1012B00004EBC504A44401248CF809402344DBB2A8
:1012C0009E4510D91C46C518272DDADD4D1C064E4B
:1012D00086FB0516E917C1EB261101EB8101A5EB91
:1012E000C101C9B2CDE770BD67666666941800207B
:1012F000024B18710122DA70704700BF9418002069
:10130000024B987101225A71704700BF9418002057
:10131000024B18720122DA71704700BF9418002046
:1013200010B54FF48063002201214FF0904000F08F
:10133000A0FA4FF48053002201214FF0904000F0BA
:1013400098FA274C022300220121204600F091FA4E
:10135000022303220021204600F0ABFA04230022DE
:101360000121204600F085FA0423032200212046B3
:1013700000F09FFA082300220121204600F079FAAC
:10138000082303220021204600F093FA10230022B4
:101390000121204600F06DFA10230322002120468F
:1013A00000F087FA4FF480614FF0904000F05CFA53
:1013B0004FF480514FF0904000F058FA022120463F
:1013C00000F054FA0421204600F050FA082120468B
:1013D00000F04CFA1021204600F048FA10BD00BF82
:1013E0000004004838B504460D464AB34FF4805116
:1013F0004FF0904000F038FA14F0100F27D002217F
:10140000204800F031FA14F0200F25D004211D48A7
:1014100000F02AFA14F0400F23D00821194800F0F8
:1014200023FA14F0800F21D11021164800F01EFA83
:101430000DB34FF480614FF0904000F015FA38BDC5
:101440004FF480514FF0904000F010FAD4E70221A1
:101450000C4800F00BFAD6E704210A4800F006FA1F
:10146000D8E70821074800F001FADAE7102105481B
:1014700000F0FAF9DCE74FF480614FF0904000F0A3
:10148000F5F9DCE700040048F8B50446837863F01A
:101490007F038370038843B18B2B34D00823A37060
:1014A0000023238003252846F8BD244F3970244E9D
:1014B000327001F0F000234D28700121FFF792FFF8
:1014C000327800212878FFF78DFF327801212878C3
:1014D000FFF788FF38780001C0B228703278012108
:1014E000FFF780FF327800212878FFF77BFF327802
:1014F00001212878FFF776FF00F0DCF8A0600123D7
:10150000E3608B232380A57815F004050DD1E168F5
:10151000A068FFF7B9F860B1A37823F00103A370C6
:10152000A37813F0010FB9D0BDE70423A3700325FE
:10153000B9E7A37843F00103A370F1E78F19002006
:101540008E190020901900200023438083800280A0
:1015500081607047438882881344028893FBF2FCC1
:1015600002FB1C3382689BB2D15483880288934269
:1015700002D00133838070474388013393FBF2F13B
:1015800002FB113343807047034681684288885CC0
:101590000132198892FBF1FC01FB1C225A809A88C7
:1015A000013A9A8070470000014B1860704700BFF5
:1015B0009419002010B5094C094B236009480A4BC7
:1015C000186040220949FFF7BFFF40220849206800
:1015D000FFF7BAFF00F020F910BD00BF181A002075
:1015E000201A00202C1A00201C1A0020D8190020D4
:1015F0009819002008B578220068FFF7A5FF08BDFC
:1016000010B582B0042000F049FB244800F040FBF4
:1016100000F055FB00F04CFB022000F0D5F900F083
:1016200001F9042000F006F900F00EF900F014F9B9
:10163000002401940094234628220421022000F073
:1016400005FA204600F0C0F94FF4186000F04EFA99
:1016500040F6811000F04AFA40F6821000F046FA97
:1016600040F6831000F042FA40F6841000F03EFA93
:101670004FF4406000F03AFA032000F0DDF9204614
:1016800000F07EF9064B074A1360074A1360074AC9
:101690001360074B1C6002B010BD00BF8038010012
:1016A00000B4C40400000020040000200800002052
:1016B000381A0020014B1868704700BF381A002004
:1016C00008B5034A136801331360FEF7EDFF08BD48
:1016D000381A002008B500F025FA08BD10B54FF003
:1016E0004023D3F8003413F0200F06D04FF04023EE
:1016F000D3F81C3413F0200F1AD14FF04023D3F845
:10170000003413F0800F1DD04FF04023D3F81C3469
:1017100013F0800F16D0124B186883889BB91148BC
:1017200000F056FA104A136823F01003136009E022
:101730000C4800F056FAC1B20C4B19700C4B1868EB
:10174000FFF708FF10BDFFF71FFF0146094B187098
:10175000044C204600F041FA204600F034FAF1E74C
:101760001C1A0020004400406C1800203C1A002085
:10177000181A00203D1A002038B50546262000F032
:10178000A5FA40F6113000F0B1F90423002202213D
:101790004FF0904000F06DF80823002202214FF036
:1017A000904000F066F80823012211464FF0904067
:1017B00000F07FF8042207214FF0904000F094F8E9
:1017C000082207214FF0904000F08EF8114C294676
:1017D000204600F0B1F90821204600F0C9F90021A7
:1017E000204600F0CEF90C21204600F0D6F9002169
:1017F000204600F0CCF90021204600F0D4F9204624
:1018000000F0E6F9204600F0D9F9204600F0D1F9C1
:1018100038BD00BF0044004008B54FF46140FFF7F9
:10182000ABFF08BD024A136843F48073136070472E
:1018300000200240034A136823F007031843106096
:10184000704700BF00200240024A136843F48063DF
:101850001360704700200240024A136843F400738B
:101860001360704700200240816170470904816164
:1018700070472DE9F0410568C46800264FF0030E5B
:1018800043FA06F7FF070DD577000EFA07FC01FAB9
:1018900007F825EA0C0524EA0C0402FA07F748EADF
:1018A00005053C430136102EEAD10560C460BDE851
:1018B000F081012941680CBF19439943F0B541609B
:1018C00081680024032643FA04F5ED0707D5650077
:1018D00006FA05F721EA070102FA05F52943013462
:1018E000102CF0D18160F0BDF0B5076A466A002384
:1018F0004FF00F0C42FA03F4E50707D59D000CFAF0
:1019000005F427EA040701FA05F52F430133082BF4
:10191000F0D100234FF00F0C03F1080442FA04F455
:10192000E40707D59C000CFA04F526EA050601FA3F
:1019300004F426430133082BEED107624662F0BD62
:10194000CA4008B502F003020A4B022A9B680BD07A
:10195000032A0BD0012A06D1C3F3031000F0D4F8F8
:10196000054B1B68584308BD0448FCE74FF4004092
:10197000F9E700BF00100240000000200024F4003E
:10198000032808D8DFE800F0160F08020D4A936814
:1019900013F00C0FFBD170470A4A9368C3F381031D
:1019A000012BFAD17047074A9368C3F38103022BD6
:1019B000FAD17047034A9368C3F38103032BFAD12A
:1019C000704700BF00100240062831D8DFE800F061
:1019D000040A0F1419212900164A136843F0807372
:1019E00013607047134A136843F48033F8E7114AD1
:1019F000136843F48073F3E70E4A136843F001035E
:101A0000EEE70C4AD2F8903043F00103C2F8903070
:101A10007047084AD2F8943043F00103C2F894307A
:101A20007047044AD2F8983043F00103C2F8983066
:101A3000704700BF00100240034A936823F003037D
:101A400018439060704700BF0010024010B5039C1F
:101A50000139640644EA01142043029C40EA4450E0
:101A6000034343EA0222024B42F08072DA6010BD67
:101A700000100240164A9042034602F5C83206D1D1
:101A8000D2F88820134B0A211868FFF759BF124972
:101A9000884204D1D2F88820104B0021F4E70D4988
:101AA00008680F498B4203D1D2F888200221ECE765
:101AB0000C498B4203D1D2F888200421E5E70A497A
:101AC000D2F888208B420CBF06210821DDE700BF39
:101AD0000080004004000020003801400800002081
:101AE0000044004000480040004C0040430903F11E
:101AF000804303F5043300F01F001968012202FA45
:101B000000F008431860704707284FF0010307D919
:101B10000B2894BF0738063803FA00F080B27047EC
:101B200018467047034AD2F8003843F00403C2F85D
:101B3000003870470000065038B50D460446FFF7E0
:101B400099FF0A4A94424FEA550303BFB0FBF5F1EF
:101B500005FB110203EB02221B1806BFB2FBF5F3D3
:101B600003EB0123B3FBF5F3E36038BD00800040D5
:101B7000036808290CBF23F4805343F480530360A7
:101B80007047436823F4405319434160704703682A
:101B900023F4C063194301607047036823F00C030A
:101BA000194301607047836823F4407319438160CF
:101BB0007047036843F0010303607047036843F014
:101BC000200303607047036843F08003036070479D
:101BD000036823F0800303607047C1F3080181624A
:101BE0007047406AC0F308007047FEE77047000086
:101BF00038B51D4A1D4B1E498B4220D31D4A00217A
:101C0000934221D34FF0E0231B4CD3F8142D1B4DEE
:101C100042F40072C3F8142DD3F8882D42F47002F8
:101C2000C3F8882DAC4212D3154C164DAC4212D3DA
:101C3000FEF7C8FD144C154DAC4210D338BD52F818
:101C4000040B43F8040BD7E743F8041BD8E754F818
:101C5000043B9847E6E754F8043B9847E6E754F816
:101C6000043B9847E8E700BFF01C00080000002094
:101C70000C000020401A0020F01C0008F01C000896
:101C8000F01C0008F01C0008F01C0008F01C000804
:101C90004FF0E02320F07F40586170474FF0E02282
:101CA00000F00400136923F0040303431361704739
:101CB0004FF0E022136943F00203136170474FF0C5
:101CC000E022136943F0010313617047054B420999
:101CD00003EB820300F01F00012202FA00F01860FB
:101CE000704700BF00E100E048454C4C4F00000049
:0C1CF00000093D0000093D0000093D0016
:0400000508001BF1E3
:00000001FF
