:020000040800F2
:1000000000800220413C00083D3C00083B3C0008C9
:100010003B3C00083B3C00083B3C00080000000063
:100020000000000000000000000000003D3C00084F
:100030003D3C0008000000003D3C0008C5360008BB
:100040003B3C00083B3C00083B3C00083B3C0008B4
:100050003B3C00083B3C00083B3C00083B3C0008A4
:100060003B3C00083B3C00083B3C00083B3C000894
:100070003B3C00083B3C00083B3C00083B3C000884
:100080003B3C00083B3C00083B3C00083B3C000874
:100090003B3C00083B3C00083B3C00083B3C000864
:1000A0003B3C00083B3C00083B3C00083B3C000854
:1000B0003B3C00083B3C00083B3C00083B3C000844
:1000C0003B3C00083B3C00083B3C00083B3C000834
:1000D0003B3C00083B3C0008253700083B3C00083F
:1000E0003B3C00083B3C00083B3C00083B3C000814
:1000F0003B3C00083B3C00083B3C00083B3C000804
:100100003B3C00083B3C00083B3C00083B3C0008F3
:100110003B3C00083B3C00083B3C00083B3C0008E3
:100120003B3C00083B3C00083B3C00083B3C0008D3
:100130003B3C00083B3C00083B3C00083B3C0008C3
:100140003B3C00083B3C00083B3C00083B3C0008B3
:100150003B3C00083B3C00083B3C00083B3C0008A3
:100160003B3C00083B3C00083B3C00083B3C000893
:100170003B3C00083B3C00083B3C00083B3C000883
:100180003B3C00083B3C00083B3C00083B3C000873
:100190003B3C00083B3C00083B3C00083B3C000863
:1001A0003B3C00083B3C00083B3C000838B504469B
:1001B000837863F07F0383700388A3B1232B1FD060
:1001C00008238370002303800325284638BD0423B9
:1001D000A3700325F9E7A37843F00103A370A37884
:1001E00013F0010FF1D120214FF0904003F060FB9C
:1001F00003F062FAA0604FF4FA73E36023232380D4
:10020000A07810F00405E2D1E168A06802F0D2FF06
:100210000028E0D0A37823F00103A370DFE708B53E
:10022000002003F08BFC2023002201214FF090409E
:1002300003F047FB08BD000008B5FFF7F0FF114BC6
:1002400001221A80104B00221A80104802F002FF8F
:100250000F4802F0FFFE0F4802F0FCFE0E4802F0CD
:10026000F9FE0E4802F0F6FE0D4802F0F3FE0D48CE
:1002700002F0F0FE0C4802F0EDFE0C4802F0EAFE3F
:1002800008BD00BFB800002010000020AD0100082C
:1002900015090008790E00083D1300080118000830
:1002A000C51C0008912100087D260008692B000864
:1002B00070B504460E46837843F08003837002884D
:1002C000242A00F28C80DFE802F0138A8A8A8A8A64
:1002D0008A8A8A8A8A8A8A8A8A8A8A8A8A8A8A8A7E
:1002E0008A8A8A8A8A8A8A8A8A8A152E455C730053
:1002F0002022028013F0040578D1524A126812F0CD
:10030000040F77D123F00103A370A37813F0010F3A
:100310006AD14C4A136843F0040313604A4B00222D
:100320001A8021232380A57815F0040566D147495A
:10033000454803F01FF9022864D9A37823F001038C
:10034000A370A37813F0010F4ED13F4B00221A8007
:1003500022232380A57815F0040558D1F1B23A483C
:1003600003F082F8022856D9A37823F00103A37082
:10037000A37813F0010F37D1334B00221A802323C7
:100380002380A57815F004054AD131492E4803F0A1
:10039000F1F8022848D9A37823F00103A370A378C9
:1003A00013F0010F20D1284B00221A802423238030
:1003B000A57815F004053CD12649234803F0DAF866
:1003C00002283AD9A37823F00103A370A37813F08D
:1003D000010F09D11B4A136823F00403136008239B
:1003E000A370002323800325284670BD0423A37037
:1003F0000325F9E743F00103A37086E70423A37004
:100400000325F1E7A37843F00103A37099E70423E0
:10041000A3700325E8E7A37843F00103A370A7E7DF
:100420000423A3700325DFE7A37843F00103A3703F
:10043000B5E70423A3700325D6E7A37843F00103AF
:10044000A370C3E71C190020B8190020383D00082C
:10045000403D00080000002070B504460E4682783A
:1004600042F080028270038863B1302B00F28180F9
:100470002C2B7ED32C3B042B7BD8DFE803F0051E0E
:10048000354C63002C23038012F0040578D1524BC5
:100490001B6813F0040F77D122F00102A270A37839
:1004A00013F0010F6AD14C4A136843F00403136040
:1004B0004A4B00221A802D232380A57815F00405CD
:1004C00066D14749454803F055F8022864D9A37816
:1004D00023F00103A370A37813F0010F4ED13F4B1B
:1004E00000221A802E232380A57815F0040558D108
:1004F000F1B23A4802F0B8FF022856D9A37823F0A7
:100500000103A370A37813F0010F37D1334B0022FE
:100510001A802F232380A57815F004054AD131498C
:100520002E4803F027F8022848D9A37823F00103C6
:10053000A370A37813F0010F20D1284B00221A805A
:1005400030232380A57815F004053CD126492348A3
:1005500003F010F802283AD9A37823F00103A3701E
:10056000A37813F0010F09D11B4A136823F0040389
:1005700013600823A370002323800325284670BD41
:100580000423A3700325F9E742F00102A27086E775
:100590000423A3700325F1E7A37843F00103A370BC
:1005A00099E70423A3700325E8E7A37843F0010348
:1005B000A370A7E70423A3700325DFE7A37843F024
:1005C0000103A370B5E70423A3700325D6E7A3783E
:1005D00043F00103A370C3E71C190020B8190020E1
:1005E000383D00084C3D00080000002070B504466E
:1005F0000E46827842F080028270038863B13C2B01
:1006000000F28180382B7ED3383B042B7BD8DFE887
:1006100003F0051E354C63003823038012F00405F7
:1006200078D1524B1B6813F0040F77D122F00102EE
:10063000A270A37813F0010F6AD14C4A136843F0FB
:10064000040313604A4B00221A8039232380A578C3
:1006500015F0040566D14749454802F08BFF022892
:1006600064D9A37823F00103A370A37813F0010FDA
:100670004ED13F4B00221A803A232380A57815F0F3
:10068000040558D1F1B23A4802F0EEFE022856D9DC
:10069000A37823F00103A370A37813F0010F37D1DF
:1006A000334B00221A803B232380A57815F00405E4
:1006B0004AD131492E4802F05DFF022848D9A3787B
:1006C00023F00103A370A37813F0010F20D1284B6E
:1006D00000221A803C232380A57815F004053CD124
:1006E0002649234802F046FF02283AD9A37823F08E
:1006F0000103A370A37813F0010F09D11B4A1368FB
:1007000023F0040313600823A37000232380032530
:10071000284670BD0423A3700325F9E742F00102C7
:10072000A27086E70423A3700325F1E7A37843F0C2
:100730000103A37099E70423A3700325E8E7A378D6
:1007400043F00103A370A7E70423A3700325DFE7A9
:10075000A37843F00103A370B5E70423A370032536
:10076000D6E7A37843F00103A370C3E71C19002068
:10077000B8190020383D00085C3D0008000000204A
:1007800070B504460E46827842F08002827003887B
:1007900063B1482B00F28180442B7ED3443B042B71
:1007A0007BD8DFE803F0051E354C6300442303804B
:1007B00012F0040578D1524B1B6813F0040F77D167
:1007C00022F00102A270A37813F0010F6AD14C4A03
:1007D000136843F0040313604A4B00221A80452338
:1007E0002380A57815F0040566D14749454802F0F5
:1007F000C1FE022864D9A37823F00103A370A37873
:1008000013F0010F4ED13F4B00221A804623238064
:10081000A57815F0040558D1F1B23A4802F024FE4B
:10082000022856D9A37823F00103A370A37813F00C
:10083000010F37D1334B00221A8047232380A5783C
:1008400015F004054AD131492E4802F093FE0228E2
:1008500048D9A37823F00103A370A37813F0010F04
:1008600020D1284B00221A8048232380A57815F038
:1008700004053CD12649234802F07CFE02283AD9DF
:10088000A37823F00103A370A37813F0010F09D11B
:100890001B4A136823F0040313600823A37000238A
:1008A00023800325284670BD0423A3700325F9E7A0
:1008B00042F00102A27086E70423A3700325F1E74A
:1008C000A37843F00103A37099E70423A3700325E1
:1008D000E8E7A37843F00103A370A7E70423A3701C
:1008E0000325DFE7A37843F00103A370B5E70423F2
:1008F000A3700325D6E7A37843F00103A370C3E7F1
:100900001C190020B8190020383D00086C3D000873
:100910000000002038B50446837863F07F038370BD
:1009200003886E2B00F29F82DFE813F06F009D02B8
:100930009D029D029D029D029D029D029D029D02BF
:100940009D029D029D029D029D029D029D029D02AF
:100950009D029D029D029D029D029D029D029D029F
:100960009D029D029D029D029D029D029D029D028F
:100970009D029D029D029D029D029D029D029D027F
:100980009D029D029D029D029D029D029D029D026F
:100990009D029D029D029D029D029D029D029D025F
:1009A0009D029D029D029D029D029D029D029D024F
:1009B0009D029D029D029D029D029D029D029D023F
:1009C0009D029D029D029D029D029D029D029D022F
:1009D0009D029D029D029D029D027D009C00B30030
:1009E0009D029D02D500F4009D029D029D02190109
:1009F000380156019D029D029D029D026F018E01EC
:100A0000A5019D02C301F5011302B14A1378B14952
:100A10000B600133137002F0B7FBAF4B186000237B
:100A2000038057232380A57815F0040540F0A181A9
:100A3000A84B1968A84B1868FFF73AFC022840F247
:100A40009C81A37823F00103A370A37813F0010F16
:100A500040F00E8202F030FEA06042F21073E360BC
:100A600058232380A57815F0040540F08B81E168B8
:100A7000A06802F09FFB002800F08881A37823F093
:100A80000103A370A37813F0010F40F0F181592303
:100A90002380A37813F0040540F07D818F4AB2F9DA
:100AA0000020002A40F37B8123F00103A370A37888
:100AB00013F0010F40F0DC81013A884B1A80884A1C
:100AC00013780133137002F05FFB864B186000232C
:100AD00003805C232380A57815F0040540F0638132
:100AE0007C4B19687F4B1868FFF780FD022840F2A5
:100AF0005E81A37823F00103A370A37813F0010FA4
:100B000040F0B68102F0D8FDA06042F21073E360BD
:100B10005D232380A57815F0040540F04D81E16840
:100B2000A06802F047FB002800F04A81A37823F078
:100B30000103A370A37813F0010F40F09981674A75
:100B4000138801331380664B1B78052B55D102F0B7
:100B50001BFB654B18600023038061232380A5786D
:100B600015F0040540F031815A4B19685E4B186846
:100B7000FFF706FE022840F22C81A37823F0010340
:100B8000A370A37813F0010F40F0728102F094FD7E
:100B9000A06042F21073E36062232380A57815F011
:100BA000040540F01B81E168A06802F003FB002807
:100BB00000F01881A37823F00103A370A37813F049
:100BC000010F40F0558149490A8801320A8003F03B
:100BD0007F03A37063232380A37813F0040540F000
:100BE000068113F0800F40F0068143F00103A370EB
:100BF000A37813F0010F40F03B8102F0C5FA3C4BA3
:100C000018600023038068232380A57815F004056D
:100C100040F0F5802F4B1968354B1868FFF71CFC26
:100C2000022840F2F080A37823F00103A370A37898
:100C300013F0010F40F01C8102F03EFDA06042F273
:100C40001073E36069232380A57815F0040540F054
:100C5000DF80E168A06802F0ADFA002800F0DC80D7
:100C6000A37823F00103A370A37813F0010F40F0E1
:100C7000FF806A232380A37813F0040540F0D1801D
:100C80001A4AB2F90020002A40F3CF8023F0010372
:100C9000A370A37813F0010F40F0EA80013A134BE0
:100CA0001A8002F071FA104B1860002303806C2345
:100CB0002380A57815F0040540F0BB80054B19682A
:100CC000094B1868FFF75CFD022840F2B68011E07E
:100CD00094000020AC0000208C000020B800002010
:100CE000BA0000206C0000202C0000201000002022
:100CF0004C000020A37823F00103A370A37813F025
:100D0000010F40F0B58002F0D7FCA06042F21073F2
:100D1000E3606D232380A57815F0040540F09280F0
:100D2000E168A06802F046FA002800F08F80A378FE
:100D300023F00103A370A37813F0010F40F0988013
:100D40004C490A8801320A8003F07F03A3706E23A6
:100D50002380A37813F004057DD113F0800F7ED19A
:100D600043F00103A370A37813F0010F3FF453AED7
:100D70007EE00423A37003257AE0A37843F0010307
:100D8000A37062E60423A370032571E0A37843F007
:100D90000103A37076E60423A370032568E043F003
:100DA0000103A37083E60423A370032560E0A37806
:100DB00043F00103A370A0E60423A370032557E0CA
:100DC000A37843F00103A370B4E60423A3700325C2
:100DD0004EE0A37843F00103A370D2E60423A3708E
:100DE000032545E0A37843F00103A370E6E604235E
:100DF000A37003253CE023F00103A370F8E604236D
:100E0000A370032534E0A37843F00103A3700EE739
:100E10000423A37003252BE0A37843F00103A37000
:100E200022E70423A370032522E043F00103A3700B
:100E30002FE70423A37003251AE0A37843F00103EE
:100E4000A3705BE70423A370032511E0A37843F0AC
:100E50000103A3706FE70423A370032508E023F0C8
:100E60000103A3707FE70823837000230380032519
:100E7000284638BD1000002038B50446837863F05A
:100E80007F03837003880BB3942B00F24E827F2B79
:100E9000C0F04B827F3B152B00F24782DFE813F056
:100EA000240043005A00450245027C009B00450295
:100EB00045024502C000DF00FD0045024502160163
:100EC00035014C0145026A019D01BB01B14A13780D
:100ED000B1490B600133137002F056F9AF4B186043
:100EE000002303807F232380A57815F0040540F0BC
:100EF000A281A94B1968A94B1868FFF7D9F90228F4
:100F000040F29D81A37823F00103A370A37813F02E
:100F1000010F40F00F8202F0CFFBA06042F210738D
:100F2000E36080232380A57815F0040540F08C81D0
:100F3000E168A06802F03EF9002800F08981A378FA
:100F400023F00103A370A37813F0010F40F0F281A6
:100F500081232380A37813F0040540F07E81904A1A
:100F6000B2F90020002A40F37C8123F00103A37032
:100F7000A37813F0010F40F0DD81013A884B1A800D
:100F8000884A13780133137002F0FEF8864B18601C
:100F90000023038084232380A57815F0040540F006
:100FA00064817D4B1968804B1868FFF71FFB02288E
:100FB00040F25F81A37823F00103A370A37813F0BC
:100FC000010F40F0B78102F077FBA06042F210738E
:100FD000E36085232380A57815F0040540F04E8159
:100FE000E168A06802F0E6F8002800F04B81A378E1
:100FF00023F00103A370A37813F0010F40F09A814E
:10100000674A138801331380664B1B78052B55D133
:1010100002F0BAF8654B186000230380892323800F
:10102000A57815F0040540F032815B4B19685F4BE1
:101030001868FFF7A5FB022840F22D81A37823F062
:101040000103A370A37813F0010F40F0738102F045
:1010500033FBA06042F21073E3608A232380A578FB
:1010600015F0040540F01C81E168A06802F0A2F8C8
:10107000002800F01981A37823F00103A370A3785E
:1010800013F0010F40F0568149490A8801320A8065
:1010900003F07F03A3708B232380A37813F0040550
:1010A00040F0078113F0800F40F0078143F0010307
:1010B000A370A37813F0010F40F03C8102F064F8B4
:1010C0003C4B1860002303808E232380A57815F005
:1010D000040540F0F680304B1968364B1868FFF76E
:1010E000BBF9022840F2F180A37823F00103A3703A
:1010F000A37813F0010F40F01D8102F0DDFAA0602B
:1011000042F21073E3608F232380A57815F0040565
:1011100040F0E080E168A06802F04CF8002800F0A0
:10112000DD80A37823F00103A370A37813F0010FEF
:1011300040F0008190232380A37813F0040540F051
:10114000D2801B4AB2F90020002A40F3D08023F05D
:101150000103A370A37813F0010F40F0EB80013A74
:10116000134B1A8002F010F8104B18600023038014
:1011700092232380A57815F0040540F0BC80064B2F
:1011800019680A4B1868FFF7FBFA022840F2B7808B
:1011900012E000BF94000020A8000020880000207A
:1011A000B8000020BA0000206800002028000020BD
:1011B0001000002048000020A37823F00103A37052
:1011C000A37813F0010F40F0B58002F075FAA0602B
:1011D00042F21073E36093232380A57815F0040591
:1011E00040F09280E168A06801F0E4FF002800F080
:1011F0008F80A37823F00103A370A37813F0010F6D
:1012000040F098804C490A8801320A8003F07F033D
:10121000A37094232380A37813F004057DD113F0E9
:10122000800F7ED143F00103A370A37813F0010F68
:101230003FF452AE7EE00423A37003257AE0A37846
:1012400043F00103A37061E60423A370032571E05A
:10125000A37843F00103A37075E60423A37003256C
:1012600068E043F00103A37082E60423A370032522
:1012700060E0A37843F00103A3709FE60423A3700A
:10128000032557E0A37843F00103A370B3E60423DA
:10129000A37003254EE0A37843F00103A370D1E6C9
:1012A0000423A370032545E0A37843F00103A37052
:1012B000E5E60423A37003253CE023F00103A370BB
:1012C000F7E60423A370032534E0A37843F0010379
:1012D000A3700DE70423A37003252BE0A37843F04C
:1012E0000103A37021E70423A370032522E043F048
:1012F0000103A3702EE70423A37003251AE0A3784B
:1013000043F00103A3705BE70423A370032511E0FE
:10131000A37843F00103A3706FE70423A3700325B0
:1013200008E023F00103A3707FE70823A3700023E4
:1013300023800325284638BD1000002038B5044618
:10134000837863F07F03837003880BB3B82B00F2BC
:101350004E82A32BC0F04B82A33B152B00F2478299
:10136000DFE813F0240043005A00450245027C00E8
:101370009B00450245024502C000DF00FD0045021A
:101380004502160135014C0145026A019D01BB0170
:10139000B14A1378B1490B600133137001F0F4FEC8
:1013A000AF4B186000230380A3232380A57815F09A
:1013B000040540F0A281A94B1968A94B1868FEF7F3
:1013C00077FF022840F29D81A37823F00103A370E8
:1013D000A37813F0010F40F00F8202F06DF9A060C6
:1013E00042F21073E360A4232380A57815F004056E
:1013F00040F08C81E168A06801F0DCFE002800F07C
:101400008981A37823F00103A370A37813F0010F5F
:1014100040F0F281A5232380A37813F0040540F067
:101420007E81904AB2F90020002A40F37C8123F0AB
:101430000103A370A37813F0010F40F0DD81013A9E
:10144000884B1A80884A13780133137001F09CFE90
:10145000864B186000230380A8232380A57815F00D
:10146000040540F064817D4B1968804B1868FFF7D4
:10147000BDF8022840F25F81A37823F00103A37036
:10148000A37813F0010F40F0B78102F015F9A060C6
:1014900042F21073E360A9232380A57815F00405B8
:1014A00040F04E81E168A06801F084FE002800F061
:1014B0004B81A37823F00103A370A37813F0010FED
:1014C00040F09A81674A138801331380664B1B787A
:1014D000052B55D101F058FE654B186000230380A1
:1014E000AD232380A57815F0040540F032815B4BD5
:1014F00019685F4B1868FFF743F9022840F22D8105
:10150000A37823F00103A370A37813F0010F40F038
:10151000738102F0D1F8A06042F21073E360AE2351
:101520002380A57815F0040540F01C81E168A068CF
:1015300001F040FE002800F01981A37823F0010398
:10154000A370A37813F0010F40F0568149490A882F
:1015500001320A8003F07F03A370AF232380A378B6
:1015600013F0040540F0078113F0800F40F007816D
:1015700043F00103A370A37813F0010F40F03C8106
:1015800001F002FE3C4B186000230380B22323804D
:10159000A57815F0040540F0F680304B1968364BFD
:1015A0001868FEF759FF022840F2F180A37823F073
:1015B0000103A370A37813F0010F40F01D8102F026
:1015C0007BF8A06042F21073E360B3232380A57818
:1015D00015F0040540F0E080E168A06801F0EAFD44
:1015E000002800F0DD80A37823F00103A370A37826
:1015F00013F0010F40F00081B4232380A37813F08F
:10160000040540F0D2801B4AB2F90020002A40F3C2
:10161000D08023F00103A370A37813F0010F40F0F2
:10162000EB80013A134B1A8001F0AEFD104B1860AD
:1016300000230380B6232380A57815F0040540F02D
:10164000BC80064B19680A4B1868FFF799F8022806
:1016500040F2B78012E000BF94000020A4000020F8
:1016600080000020B8000020BA00002064000020A4
:10167000240000201000002044000020A37823F064
:101680000103A370A37813F0010F40F0B58002F0BE
:1016900013F8A06042F21073E360B7232380A578AB
:1016A00015F0040540F09280E168A06801F082FD29
:1016B000002800F08F80A37823F00103A370A378A3
:1016C00013F0010F40F098804C490A8801320A80DB
:1016D00003F07F03A370B8232380A37813F00405DD
:1016E0007DD113F0800F7ED143F00103A370A37866
:1016F00013F0010F3FF452AE7EE00423A3700325E4
:101700007AE0A37843F00103A37061E60423A37099
:10171000032571E0A37843F00103A37075E6042369
:10172000A370032568E043F00103A37082E604235D
:10173000A370032560E0A37843F00103A3709FE644
:101740000423A370032557E0A37843F00103A3709B
:10175000B3E60423A37003254EE0A37843F001030E
:10176000A370D1E60423A370032545E0A37843F0DA
:101770000103A370E5E60423A37003253CE023F0F6
:101780000103A370F7E60423A370032534E0A378D4
:1017900043F00103A3700DE70423A37003252BE09E
:1017A000A37843F00103A37021E70423A37003256A
:1017B00022E043F00103A3702EE70423A370032566
:1017C0001AE0A37843F00103A3705BE70423A3703E
:1017D000032511E0A37843F00103A3706FE704230E
:1017E000A370032508E023F00103A3707FE708231B
:1017F000A370002323800325284638BD1000002055
:1018000038B50446837863F07F03837003880BB395
:10181000DD2B00F24E82C82BC0F04B82C83B152B4B
:1018200000F24782DFE813F0240043005A0045022B
:1018300045027C009B00450245024502C000DF00D6
:10184000FD0045024502160135014C0145026A01C1
:101850009D01BB01B14A1378B1490B60013313708C
:1018600001F092FCAF4B186000230380C823238053
:10187000A57815F0040540F0A281A94B1968A94B81
:101880001868FEF715FD022840F29D81A37823F029
:101890000103A370A37813F0010F40F00F8201F051
:1018A0000BFFA06042F21073E360C9232380A57888
:1018B00015F0040540F08C81E168A06801F07AFC25
:1018C000002800F08981A37823F00103A370A37896
:1018D00013F0010F40F0F281CA232380A37813F0A4
:1018E000040540F07E81904AB2F90020002A40F3BE
:1018F0007C8123F00103A370A37813F0010F40F063
:10190000DD81013A884B1A80884A137801331370BD
:1019100001F03AFC864B186000230380CD2323801E
:10192000A57815F0040540F064817D4B1968804B63
:101930001868FEF75BFE022840F25F81A37823F06F
:101940000103A370A37813F0010F40F0B78101F0F9
:10195000B3FEA06042F21073E360CE232380A5782B
:1019600015F0040540F04E81E168A06801F022FC0A
:10197000002800F04B81A37823F00103A370A37823
:1019800013F0010F40F09A81674A138801331380E6
:10199000664B1B78052B55D101F0F6FB654B1860A3
:1019A00000230380D2232380A57815F0040540F09E
:1019B00032815B4B19685F4B1868FEF7E1FE022825
:1019C00040F22D81A37823F00103A370A37813F0D4
:1019D000010F40F0738101F06FFEA06042F21073BE
:1019E000E360D3232380A57815F0040540F01C8123
:1019F000E168A06801F0DEFB002800F01981A378FF
:101A000023F00103A370A37813F0010F40F0568177
:101A100049490A8801320A8003F07F03A370D42366
:101A20002380A37813F0040540F0078113F0800FA2
:101A300040F0078143F00103A370A37813F0010F76
:101A400040F03C8101F0A0FB3C4B18600023038078
:101A5000D7232380A57815F0040540F0F680304B9D
:101A60001968364B1868FEF7F7FC022840F2F1803F
:101A7000A37823F00103A370A37813F0010F40F0C3
:101A80001D8101F019FEA06042F21073E360D823BB
:101A90002380A57815F0040540F0E080E168A06897
:101AA00001F088FB002800F0DD80A37823F001031B
:101AB000A370A37813F0010F40F00081D923238095
:101AC000A37813F0040540F0D2801B4AB2F900203D
:101AD000002A40F3D08023F00103A370A37813F011
:101AE000010F40F0EB80013A134B1A8001F04CFBE0
:101AF000104B186000230380DB232380A57815F0AA
:101B0000040540F0BC80064B19680A4B1868FEF7C4
:101B100037FE022840F2B78012E000BF9400002098
:101B2000A00000207C000020B8000020BA000020A7
:101B30006000002020000020100000204000002055
:101B4000A37823F00103A370A37813F0010F40F0F2
:101B5000B58001F0B1FDA06042F21073E360DC23B8
:101B60002380A57815F0040540F09280E168A06814
:101B700001F020FB002800F08F80A37823F0010300
:101B8000A370A37813F0010F40F098804C490A88A5
:101B900001320A8003F07F03A370DD232380A37842
:101BA00013F004057DD113F0800F7ED143F00103C3
:101BB000A370A37813F0010F3FF452AE7EE004232C
:101BC000A37003257AE0A37843F00103A37061E6D4
:101BD0000423A370032571E0A37843F00103A370ED
:101BE00075E60423A370032568E043F00103A370A6
:101BF00082E60423A370032560E0A37843F0010389
:101C0000A3709FE60423A370032557E0A37843F055
:101C10000103A370B3E60423A37003254EE0A37869
:101C200043F00103A370D1E60423A370032545E02C
:101C3000A37843F00103A370E5E60423A370032512
:101C40003CE023F00103A370F7E60423A37003250F
:101C500034E0A37843F00103A3700DE70423A370DD
:101C600003252BE0A37843F00103A37021E70423AD
:101C7000A370032522E043F00103A3702EE70423A1
:101C8000A37003251AE0A37843F00103A3705BE778
:101C90000423A370032511E0A37843F00103A3708C
:101CA0006FE70423A370032508E023F00103A3706A
:101CB0007FE70823A370002323800325284638BD2F
:101CC0001000002038B50446837863F07F038370EA
:101CD000038813B3B3F5817F00F25182ED2BC0F07E
:101CE0004E82ED3B152B00F24A82DFE813F0240010
:101CF00043005A00480248027C009B004802480208
:101D00004802C000DF00FD0048024802160135010C
:101D10004C0148026B019F01BE01B24A1378B249DF
:101D20000B600133137001F02FFAB04B18600023E1
:101D30000380ED232380A57815F0040540F0A581EC
:101D4000A94B1968A94B1868FEF7B2FA022840F2AD
:101D5000A081A37823F00103A370A37813F0010FEF
:101D600040F0128201F0A8FCA06042F21073E36020
:101D7000EE232380A57815F0040540F08F81E168FB
:101D8000A06801F017FA002800F08C81A37823F0F6
:101D90000103A370A37813F0010F40F0F581EF2346
:101DA0002380A37813F0040540F08181904AB2F9B2
:101DB0000020002A40F37F8123F00103A370A37861
:101DC00013F0010F40F0E081013A894B1A80894AF3
:101DD00013780133137001F0D7F9874B1860002393
:101DE0000380F2232380A57815F0040540F0678175
:101DF0007D4B1968804B1868FEF7F8FB022840F20B
:101E00006281A37823F00103A370A37813F0010F7C
:101E100040F0BA8101F050FCA06042F21073E36020
:101E2000F3232380A57815F0040540F05181E16883
:101E3000A06801F0BFF9002800F04E81A37823F0DC
:101E40000103A370A37813F0010F40F09D81684A4D
:101E5000138801331380674B1B78052B55D101F094
:101E600093F9664B186000230380F7232380A5783D
:101E700015F0040540F035815B4B19685F4B18681D
:101E8000FEF77EFC022840F23081A37823F00103A4
:101E9000A370A37813F0010F40F0768101F00CFCE1
:101EA000A06042F21073E360F8232380A57815F058
:101EB000040540F01F81E168A06801F07BF900286B
:101EC00000F01C81A37823F00103A370A37813F022
:101ED000010F40F059814A490A8801320A8003F013
:101EE0007F03A370F9232380A37813F0040540F047
:101EF0000A8113F0800F40F00A8143F00103A370C0
:101F0000A37813F0010F40F03F8101F03DF93D4B04
:101F1000186000230380FC232380A57815F00405B6
:101F200040F0F980304B1968364B1868FEF794FA88
:101F3000022840F2F480A37823F00103A370A37871
:101F400013F0010F40F0208101F0B6FBA06042F2D7
:101F50001073E360FD232380A57815F0040540F09D
:101F6000E380E168A06801F025F9002800F0E08036
:101F7000A37823F00103A370A37813F0010F40F0BE
:101F80000381FE232380A37813F0040540F0D5805D
:101F90001B4AB2F90020002A40F3D38023F001034A
:101FA000A370A37813F0010F40F0EE80013A144BB8
:101FB0001A8001F0E9F8114B1860002303804FF4F8
:101FC00080732380A57815F0040540F0BE80064B91
:101FD00019680A4B1868FEF7D3FB022840F2B98053
:101FE00012E000BF940000209C0000207800002038
:101FF000B8000020BA000020580000201C0000207B
:10200000100000203C000020A37823F00103A370FF
:10201000A37813F0010F40F0B78001F04DFBA060F2
:1020200042F21073E36040F201132380A57815F0AB
:10203000040540F09380E168A06801F0BBF8002837
:1020400000F09080A37823F00103A370A37813F02D
:10205000010F40F099804D490A8801320A8003F04F
:102060007F03A3704FF481732380A37813F00405DA
:102070007DD113F0800F7ED143F00103A370A378CC
:1020800013F0010F3FF44FAE7EE00423A37003254D
:102090007AE0A37843F00103A3705EE60423A37003
:1020A000032571E0A37843F00103A37072E60423D3
:1020B000A370032568E043F00103A3707FE60423C7
:1020C000A370032560E0A37843F00103A3709CE6AE
:1020D0000423A370032557E0A37843F00103A37002
:1020E000B0E60423A37003254EE0A37843F0010378
:1020F000A370CEE60423A370032545E0A37843F044
:102100000103A370E2E60423A37003253CE023F05F
:102110000103A370F4E60423A370032534E0A3783D
:1021200043F00103A3700AE70423A37003252BE007
:10213000A37843F00103A3701EE70423A3700325D3
:1021400022E043F00103A3702BE70423A3700325CF
:102150001AE0A37843F00103A37059E70423A370A6
:10216000032511E0A37843F00103A3706EE7042375
:10217000A370032508E023F00103A3707FE7082381
:10218000A370002323800325284638BD10000020BB
:1021900038B50446837863F07F038370038823B3E4
:1021A000B3F5937F00F25E82B3F5887F40F25A82E6
:1021B000A3F21113152B00F25582DFE813F025006E
:1021C00045005D00530253028000A00053025302F9
:1021D0005302C600E6000501530253021F013F01EE
:1021E000570153027601AA01C901B44A1378B449D0
:1021F0000B600133137000F0C7FFB24B186000236F
:10220000038040F211132380A57815F0040540F0F7
:10221000AF81AB4B1968AB4B1868FEF749F8022841
:1022200040F2AA81A37823F00103A370A37813F0EE
:10223000010F40F01C8201F03FFAA06042F21073DF
:10224000E3604FF489732380A57815F0040540F00E
:102250009881E168A06800F0ADFF002800F095814A
:10226000A37823F00103A370A37813F0010F40F0CB
:10227000FE8140F213132380A37813F0040540F08D
:102280008981914AB2F90020002A40F3878123F026
:102290000103A370A37813F0010F40F0E881013A25
:1022A000894B1A80894A13780133137000F06CFF50
:1022B000874B1860002303804FF48B732380A5782D
:1022C00015F0040540F06E817D4B1968804B18684D
:1022D000FEF78CF9022840F26981A37823F001030C
:1022E000A370A37813F0010F40F0C18101F0E4F96D
:1022F000A06042F21073E36040F217132380A578C8
:1023000015F0040540F05781E168A06800F052FF25
:10231000002800F05481A37823F00103A370A37870
:1023200013F0010F40F0A381674A13880133138033
:10233000664B1B78052B58D100F026FF654B1860C3
:102340000023038040F21B132380A57815F00405B9
:1023500040F03A815A4B19685E4B1868FEF710FA44
:10236000022840F23581A37823F00103A370A378FB
:1023700013F0010F40F07B8101F09EF9A06042F262
:102380001073E3604FF48E732380A57815F0040575
:1023900040F02381E168A06800F00CFF002800F005
:1023A0002081A37823F00103A370A37813F0010F19
:1023B00040F05D8148490A8801320A8003F07F03BA
:1023C000A37040F21D132380A37813F0040540F09E
:1023D0000D8113F0800F40F00D8143F00103A370D5
:1023E000A37813F0010F40F0428100F0CDFE3B4B8B
:1023F0001860002303804FF490732380A57815F0B4
:10240000040540F0FB802E4B1968344B1868FEF72A
:1024100023F8022840F2F680A37823F00103A3708A
:10242000A37813F0010F40F0228101F045F9A0607C
:1024300042F21073E36040F221132380A57815F077
:10244000040540F0E480E168A06800F0B3FE0028D5
:1024500000F0E180A37823F00103A370A37813F0C8
:10246000010F40F004814FF491732380A37813F09F
:10247000040540F0D580184AB2F90020002A40F344
:10248000D38023F00103A370A37813F0010F40F071
:10249000EE80013A104B1A8000F076FE0D4B18606A
:1024A000002303804FF492732380A57815F0040570
:1024B00040F0BE80024B196812E000BF940000207B
:1024C0009800002074000020B8000020BA0000200E
:1024D00054000020180000201000002038000020C8
:1024E000644B1868FEF74CF9022840F2A580A378E7
:1024F00023F00103A370A37813F0010F40F0B7801D
:1025000001F0DAF8A06042F21073E36040F22513A4
:102510002380A57815F0040540F09380E168A06859
:1025200000F048FE002800F09080A37823F001031B
:10253000A370A37813F0010F40F099804E490A88E8
:1025400001320A8003F07F03A3704FF4937323805A
:10255000A37813F004057DD113F0800F7ED143F0F2
:102560000103A370A37813F0010F3FF444AE7EE0A3
:102570000423A37003257AE0A37843F00103A3703A
:1025800054E60423A370032571E0A37843F001030C
:10259000A37069E60423A370032568E043F00103F8
:1025A000A37077E60423A370032560E0A37843F0CB
:1025B0000103A37095E60423A370032557E0A378D5
:1025C00043F00103A370AAE60423A37003254EE0A1
:1025D000A37843F00103A370C9E60423A370032585
:1025E00045E0A37843F00103A370DEE60423A37063
:1025F00003253CE023F00103A370F1E60423A3705C
:10260000032534E0A37843F00103A37008E7042313
:10261000A37003252BE0A37843F00103A3701DE70B
:102620000423A370032522E043F00103A3702BE7EA
:102630000423A37003251AE0A37843F00103A370D9
:1026400059E70423A370032511E0A37843F00103A5
:10265000A3706EE70423A370032508E023F00103B1
:10266000A3707FE70823A370002323800325284657
:1026700038BD00BF180000201000002038B5044607
:10268000837863F07F03837003882BB3B3F5A67F51
:1026900080F05E82B3F59A7F40F25A82A3F235133E
:1026A000162B00F25582DFE813F0260046005E008C
:1026B000530253028100A100530253025302C70088
:1026C000E700060153025302530220014001580162
:1026D00053027701AA01C901B34A1378B3490B60C9
:1026E0000133137000F050FDB14B186000230380DC
:1026F00040F235132380A57815F0040540F0AE8133
:10270000AA4B1968AA4B1868FDF7D2FD022840F2BF
:10271000A981A37823F00103A370A37813F0010F1C
:1027200040F01B8200F0C8FFA06042F21073E3602B
:102730004FF49B732380A57815F0040540F0978132
:10274000E168A06800F036FD002800F09481A378CD
:1027500023F00103A370A37813F0010F40F0FD8173
:1027600040F237132380A37813F0040540F08881EA
:10277000904AB2F90020002A40F3868123F0010339
:10278000A370A37813F0010F40F0E781013A894B61
:102790001A80894A13780133137000F0F5FC874BD7
:1027A0001860002303804FF49D732380A57815F0F3
:1027B000040540F06D817D4B1968804B1868FDF76A
:1027C00015FF022840F26881A37823F00103A3706B
:1027D000A37813F0010F40F0C08100F06DFFA060FE
:1027E00042F21073E36040F23B132380A57815F0AA
:1027F000040540F05681E168A06800F0DBFC002889
:1028000000F05381A37823F00103A370A37813F0A1
:10281000010F40F0A281674A138801331380664B91
:102820001B78052B58D100F0AFFC654B18600023D6
:10283000038040F23F132380A57815F0040540F093
:1028400039815A4B19685E4B1868FDF799FF0228C9
:1028500040F23481A37823F00103A370A37813F02E
:10286000010F40F07A8100F027FFA06042F2107360
:10287000E3604FF4A0732380A57815F0040540F0C1
:102880002281E168A06800F095FC002800F01F811B
:10289000A37823F00103A370A37813F0010F40F095
:1028A0005C8148490A8801320A8003F07F03A370E3
:1028B00040F241132380A37813F0040540F00C810B
:1028C00013F0800F40F00C8143F00103A370A37854
:1028D00013F0010F40F0418100F056FC3A4B1860B4
:1028E0000023038040F245132380A57815F00405EA
:1028F00040F0FA802D4B1968334B1868FDF7ACFD9A
:10290000022840F2F580A37823F00103A370A37896
:1029100013F0010F40F0218100F0CEFEA06042F2E2
:102920001073E3604FF4A3732380A57815F00405BA
:1029300040F0E380E168A06800F03CFC002800F073
:10294000E080A37823F00103A370A37813F0010FB4
:1029500040F0038140F247132380A37813F004056D
:1029600040F0D480174AB2F90020002A40F3D28008
:1029700023F00103A370A37813F0010F40F0ED8062
:10298000013A104B1A8000F0FFFB0D4B186000233A
:10299000038040F249132380A57815F0040540F028
:1029A000BD80024B196811E094000020B4000020A3
:1029B00090000020B8000020BA0000207000002025
:1029C000300000201000002050000020644B1868E8
:1029D000FDF7D6FE022840F2A580A37823F001037C
:1029E000A370A37813F0010F40F0B78000F064FEED
:1029F000A06042F21073E3604FF4A5732380A578C2
:102A000015F0040540F09380E168A06800F0D2FB67
:102A1000002800F09080A37823F00103A370A3782E
:102A200013F0010F40F099804E490A8801320A8064
:102A300003F07F03A37040F24B132380A37813F0BD
:102A400004057DD113F0800F7ED143F00103A37004
:102A5000A37813F0010F3FF445AE7EE00423A3708A
:102A600003257AE0A37843F00103A37055E604231D
:102A7000A370032571E0A37843F00103A3706AE615
:102A80000423A370032568E043F00103A37078E6F4
:102A90000423A370032560E0A37843F00103A3702F
:102AA00096E60423A370032557E0A37843F00103BF
:102AB000A370ABE60423A37003254EE0A37843F094
:102AC0000103A370CAE60423A370032545E0A3789D
:102AD00043F00103A370DFE60423A37003253CE069
:102AE00023F00103A370F2E60423A370032534E06E
:102AF000A37843F00103A37009E70423A37003251F
:102B00002BE0A37843F00103A3701EE70423A37016
:102B1000032522E043F00103A3702CE70423A370F4
:102B200003251AE0A37843F00103A37059E70423B7
:102B3000A370032511E0A37843F00103A3706EE7AF
:102B40000423A370032508E023F00103A3707FE7AB
:102B50000823A370002323800325284638BD00BF27
:102B6000300000201000002038B50446837863F060
:102B70007F03837003882BB3B3F5B97F80F05E8247
:102B8000B3F5AD7F40F25A82A3F25B13162B00F22D
:102B90005582DFE813F0260046005E005302530220
:102BA0008100A100530253025302C700E70006014F
:102BB000530253025302200140015801530277018E
:102BC000AA01C901B34A1378B3490B6001331370EA
:102BD00000F0DAFAB14B18600023038040F25B1377
:102BE0002380A57815F0040540F0AE81AA4B196842
:102BF000AA4B1868FDF75CFB022840F2A981A37874
:102C000023F00103A370A37813F0010F40F01B829F
:102C100000F052FDA06042F21073E3604FF4AE7317
:102C20002380A57815F0040540F09781E168A0683D
:102C300000F0C0FA002800F09481A37823F001038B
:102C4000A370A37813F0010F40F0FD8140F25D13F3
:102C50002380A37813F0040540F08881904AB2F9EC
:102C60000020002A40F3868123F00103A370A3789B
:102C700013F0010F40F0E781013A894B1A80894A2D
:102C800013780133137000F07FFA874B186000232C
:102C900003804FF4B0732380A57815F0040540F04D
:102CA0006D817D4B1968804B1868FDF79FFC0228E9
:102CB00040F26881A37823F00103A370A37813F096
:102CC000010F40F0C08100F0F7FCA06042F21073E9
:102CD000E36040F261132380A57815F0040540F00D
:102CE0005681E168A06800F065FA002800F0538181
:102CF000A37823F00103A370A37813F0010F40F031
:102D0000A281674A138801331380664B1B78052B19
:102D100058D100F039FA654B18600023038040F267
:102D200065132380A57815F0040540F039815A4BCE
:102D300019685E4B1868FDF723FD022840F23481C4
:102D4000A37823F00103A370A37813F0010F40F0E0
:102D50007A8100F0B1FCA06042F21073E3604FF49E
:102D6000B3732380A57815F0040540F02281E16853
:102D7000A06800F01FFA002800F01F81A37823F05C
:102D80000103A370A37813F0010F40F05C81484960
:102D90000A8801320A8003F07F03A37040F26713B0
:102DA0002380A37813F0040540F00C8113F0800F0A
:102DB00040F00C8143F00103A370A37813F0010FDE
:102DC00040F0418100F0E0F93A4B186000230380A5
:102DD00040F26B132380A57815F0040540F0FA80CB
:102DE0002D4B1968334B1868FDF736FB022840F26B
:102DF000F580A37823F00103A370A37813F0010FEB
:102E000040F0218100F058FCA06042F21073E360B2
:102E10004FF4B6732380A57815F0040540F0E380E5
:102E2000E168A06800F0C6F9002800F0E080A3780F
:102E300023F00103A370A37813F0010F40F0038186
:102E400040F26D132380A37813F0040540F0D48082
:102E5000174AB2F90020002A40F3D28023F0010380
:102E6000A370A37813F0010F40F0ED80013A104BEE
:102E70001A8000F089F90D4B18600023038040F29E
:102E80006F132380A57815F0040540F0BD80024B38
:102E9000196811E094000020B00000208400002098
:102EA000B8000020BA0000205C00002014000020C0
:102EB0001000002034000020644B1868FDF760FC0F
:102EC000022840F2A580A37823F00103A370A37821
:102ED00013F0010F40F0B78000F0EEFBA06042F26B
:102EE0001073E3604FF4B8732380A57815F00405E0
:102EF00040F09380E168A06800F05CF9002800F0E1
:102F00009080A37823F00103A370A37813F0010F3E
:102F100040F099804E490A8801320A8003F07F030D
:102F2000A37040F271132380A37813F004057DD1C0
:102F300013F0800F7ED143F00103A370A37813F048
:102F4000010F3FF445AE7EE00423A37003257AE031
:102F5000A37843F00103A37055E60423A37003256F
:102F600071E0A37843F00103A3706AE60423A37021
:102F7000032568E043F00103A37078E60423A370FF
:102F8000032560E0A37843F00103A37096E60423D1
:102F9000A370032557E0A37843F00103A370ABE6C9
:102FA0000423A37003254EE0A37843F00103A3702C
:102FB000CAE60423A370032545E0A37843F0010388
:102FC000A370DFE60423A37003253CE023F0010394
:102FD000A370F2E60423A370032534E0A37843F042
:102FE0000103A37009E70423A37003252BE0A37852
:102FF00043F00103A3701EE70423A370032522E01E
:1030000043F00103A3702CE70423A37003251AE007
:10301000A37843F00103A37059E70423A3700325A9
:1030200011E0A37843F00103A3706EE70423A370BB
:10303000032508E023F00103A3707FE70823A370B2
:10304000002323800325284638BD00BF140000203C
:103050001000002030B5334B1D781F2D03D80024FD
:10306000A646234603E000203AE00133DBB21F2BE3
:1030700037D803EB43022C4901EBC202526882426B
:1030800006D0002CF1D1002AEFD19E460124ECE7B6
:10309000254A03EB4301CC0002EBC1010020105391
:1030A000887049690968888020494B5501351D4958
:1030B0000D700EEB4E0102EBC102128A5AB91C4987
:1030C0000A88013292B20A800EEB4E0E164901EBCD
:1030D000CE0EAEF8102003EB4303134800EBC30001
:1030E00030BDE4B1104B0EEB4E02D40003EBC20234
:1030F00050600021195391705069006881800B491C
:1031000001F805E0013507490D70094801880131D2
:1031100089B2018011820EEB4E0E1046E0E70020CE
:10312000DEE700BF29190020FC060020FC09002072
:1031300026190020002301E00133DBB20E4A127889
:103140009A4217D99C460D4AD25CFD2AF4D802EB6C
:1031500042020B4901EBC20252688242ECD1074B9A
:10316000FE2203F80C20074A136843F001031360A2
:10317000012070470020704729190020FC09002019
:10318000FC0600201C19002000231F2B0ED803EB87
:103190004301CA0006498A5A12B101339BB2F4E7CF
:1031A00003EB4300C30008461844704700207047F3
:1031B000BC00002038B504460D4600F07DFA031B24
:1031C000A04200D2013BAB4201D9012038BD002012
:1031D000FCE7000038B5134B1D78002403E0013DE7
:1031E000EDB20134E4B2E5B10123A3400E49096810
:1031F0000B42F6D004EB44018B000C4919448B6858
:10320000013B8B60002BEAD1084904EB44008300AA
:103210000B445868986004EB44029300CB589847DD
:10322000DDE738BD24190020201900203C060020CD
:1032300010B5002423E004EB4403DA00214B1344CF
:1032400000215960204AFF20105504EB4402D000B1
:103250001E4A024451601E4A02EBC400586104EB4E
:10326000440399001B4B0B4442F83430C4EB041266
:10327000D3001949194400F0BFF90134E4B21F2CFE
:10328000D9D90023154A13600F2B08D803EB43014B
:103290008A001349002088500133DBB2F4E7002391
:1032A000104A1370104A1370104A1370202000F057
:1032B000B5F800F011FA00F0A5F900F0B5F8FCF748
:1032C000BBFF10BDFC060020FC090020BC00002054
:1032D0003C050020BC0300201C0A0020201900200F
:1032E0003C0600202919002028190020241900205C
:1032F00070B5FFF79DFF234B00221A801CE00134BC
:10330000E4B2B44213D2204B1D5D05EB45031F48C8
:1033100000EBC300436898470328F0D105EB45054F
:103320001A4B03EBC5056868FFF704FFE7E7184B86
:103330001B6813F0010F03D1164B1E780024E0E741
:10334000144A1178104A525CFE2A03D099B101390F
:10335000C9B2F7E74A1CD2B205E0541E0A48855CA0
:1033600005550132D2B2B242F7D3013E064AFF20E0
:103370009055F6B2EAE7074A167023F00103044AB3
:103380001360D9E726190020FC090020FC06002064
:103390001C1900202919002000234380838002800B
:1033A000816070478388B0F800C063450BD24288C3
:1033B000134493FBFCF20CFB123382689BB2D15492
:1033C000838801338380704743888288134402884E
:1033D00093FBF2FC02FB1C3382689BB2D1548388BE
:1033E0000288934202D001338380704743880133BF
:1033F00093FBF2F102FB113343807047034681686F
:103400004288885C0132198892FBF1FC01FB1C2286
:103410005A809A88013A9A8070470000014B1860E0
:10342000704700BF2C19002010B5094C094B2360D0
:1034300009480A4B186040220949FFF7ADFF4022B6
:1034400008492068FFF7A8FF00F00AFA10BD00BF86
:10345000B0190020D0190020DC190020B419002078
:10346000701900203019002010B50446837863F0ED
:103470007F03837003883BB1842B47D00823A3705C
:1034800000232380032010BD344B00221A706329CF
:1034900008D901221A70324BA3FB01235B09303398
:1034A000304A1370092912D92C4B1A78501C187005
:1034B0002B4BA3FB01035B09642000FB1313DBB25E
:1034C0002948A0FB0303DB08303326488354234BF1
:1034D00093F800C00CF10102D2B21A70224BA3FB88
:1034E0000103DB0803EB8303A1EB430130311D48EB
:1034F00000F80C10002383541C4A13701B4B1A78DD
:10350000164B1B789A4225D284232380A37813F08C
:10351000040017D1164A126811889288914215D07A
:1035200023F00103A370A37813F0010FABD10F4A6E
:103530001378591C11700B4AD15C0D4B1868FFF7BA
:1035400031FFDBE70423A37003209CE743F0010372
:10355000A370E8E700F0C4F890E700BFF519002079
:103560001F85EB51E8190020CDCCCCCCF4190020FC
:10357000B419002010B50446837863F07F0383708C
:1035800003883BB1BF2B0ED00823A37000232380F8
:10359000032010BD164B1960154B1B681B78002BC0
:1035A000F2D0BF232380A37813F0040018D1114A6E
:1035B000126811889288914216D023F00103A370FB
:1035C000A37813F0010FE4D1094A1368591C116064
:1035D0001978084B1868FFF7E5FE00F081F8DBE783
:1035E0000423A3700320D4E743F00103A370E7E7AB
:1035F000F0190020B419002008B578220068FFF700
:10360000CBFE08BD10B582B0042000F06FFB24484B
:1036100000F066FB00F07BFB00F072FB022000F084
:10362000FBF900F023F9042000F028F900F030F94C
:1036300000F036F900240194009423462822042146
:10364000022000F02BFA204600F0E6F94FF4186053
:1036500000F074FA40F6811000F070FA40F6821023
:1036600000F06CFA40F6831000F068FA40F684101F
:1036700000F064FA4FF4406000F060FA032000F0BC
:1036800003FA204600F0A4F9064B074A1360074AE4
:103690001360074A1360074B1C6002B010BD00BFE7
:1036A0008038010000B4C404040000200800002099
:1036B0000C000020F8190020014B1868704700BF6B
:1036C000F819002008B5034A136801331360FFF7A7
:1036D00081FD08BDF819002008B500F04BFA08BDBF
:1036E0000C4B1B6813F0100F00D0704710B543F05F
:1036F0001003084A1360084B1868FFF77FFE014665
:10370000064B1870064C204600F08FFA204600F059
:1037100082FA10BD1C190020B4190020FD190020E8
:103720000044004010B54FF04023D3F8003413F0AC
:10373000200F06D04FF04023D3F81C3413F0200F95
:103740001AD14FF04023D3F8003413F0800F1DD06E
:103750004FF04023D3F81C3413F0800F16D0124BD7
:10376000186883889BB9114800F05AFA104A136808
:1037700023F01003136009E00C4800F05AFAC1B2BC
:103780000C4B19700C4B1868FFF71EFE10BDFFF7AD
:1037900035FE0146094B1870044C204600F045FAEE
:1037A000204600F038FAF1E7B41900200044004048
:1037B0001C190020FC190020B0190020FD19002060
:1037C00038B50546262000F0A9FA40F6113000F081
:1037D000B5F90423002202214FF0904000F071F867
:1037E0000823002202214FF0904000F06AF80823DD
:1037F000012211464FF0904000F083F80422072187
:103800004FF0904000F098F8082207214FF09040C8
:1038100000F092F8114C2946204600F0B5F9082135
:10382000204600F0CDF90021204600F0D2F90C210D
:10383000204600F0DAF90021204600F0D0F90021FE
:10384000204600F0D8F9204600F0EAF9204600F0C2
:10385000DDF9204600F0D5F938BD00BF0044004036
:1038600008B54FF46140FFF7ABFF08BD024A13688B
:1038700043F480731360704700200240034A1368CA
:1038800023F0070318431060704700BF0020024078
:10389000024A136843F480631360704700200240BB
:1038A000024A136843F4007313607047002002401B
:1038B000436901EA030221EA030141EA024181610D
:1038C00070472DE9F0410568C46800264FF0030EEB
:1038D00043FA06F7FF070DD577000EFA07FC01FA49
:1038E00007F825EA0C0524EA0C0402FA07F748EA6F
:1038F00005053C430136102EEAD10560C460BDE8E1
:10390000F081012941680CBF19439943F0B541602A
:1039100081680024032643FA04F5ED0707D5650006
:1039200006FA05F721EA070102FA05F529430134F1
:10393000102CF0D18160F0BDF0B5076A466A002313
:103940004FF00F0C42FA03F4E50707D59D000CFA7F
:1039500005F427EA040701FA05F52F430133082B84
:10396000F0D100234FF00F0C03F1080442FA04F4E5
:10397000E40707D59C000CFA04F526EA050601FACF
:1039800004F426430133082BEED107624662F0BDF2
:10399000CA4008B502F003020A4B022A9B680BD00A
:1039A000032A0BD0012A06D1C3F3031000F0D4F888
:1039B000054B1B68584308BD0448FCE74FF4004022
:1039C000F9E700BF00100240040000200024F400CA
:1039D000032808D8DFE800F0160F08020D4A9368A4
:1039E00013F00C0FFBD170470A4A9368C3F38103AD
:1039F000012BFAD17047074A9368C3F38103022B66
:103A0000FAD17047034A9368C3F38103032BFAD1B9
:103A1000704700BF00100240062831D8DFE800F0F0
:103A2000040A0F1419212900164A136843F0807301
:103A300013607047134A136843F48033F8E7114A60
:103A4000136843F48073F3E70E4A136843F00103ED
:103A5000EEE70C4AD2F8903043F00103C2F8903000
:103A60007047084AD2F8943043F00103C2F894300A
:103A70007047044AD2F8983043F00103C2F89830F6
:103A8000704700BF00100240034A936823F003030D
:103A900018439060704700BF0010024010B5039CAF
:103AA0000139640644EA01142043029C40EA445070
:103AB000034343EA0222024B42F08072DA6010BDF7
:103AC00000100240164A9042034602F5C83206D161
:103AD000D2F88820134B0A211868FFF759BF124902
:103AE000884204D1D2F88820104B0021F4E70D4918
:103AF00008680F498B4203D1D2F888200221ECE7F5
:103B00000C498B4203D1D2F888200421E5E70A4909
:103B1000D2F888208B420CBF06210821DDE700BFC8
:103B20000080004008000020003801400C00002008
:103B30000044004000480040004C0040430903F1AD
:103B4000804303F5043300F01F001968012202FAD4
:103B500000F008431860704707284FF0010307D9A9
:103B60000B2894BF0738063803FA00F080B270477C
:103B700018467047034AD2F8003843F00403C2F8ED
:103B8000003870470000065038B50D460446FFF770
:103B900099FF0A4A94424FEA550303BFB0FBF5F17F
:103BA00005FB110203EB02221B1806BFB2FBF5F363
:103BB00003EB0123B3FBF5F3E36038BD0080004065
:103BC000036808290CBF23F4805343F48053036037
:103BD0007047436823F440531943416070470368BA
:103BE00023F4C063194301607047036823F00C039A
:103BF000194301607047836823F44073194381605F
:103C00007047036843F0010303607047036843F0A3
:103C1000200303607047036843F08003036070472C
:103C2000036823F0800303607047C1F308018162D9
:103C30007047406AC0F308007047FEE77047000015
:103C400038B51D4A1D4B1E498B4220D31D4A002109
:103C5000934221D34FF0E0231B4CD3F8142D1B4D7E
:103C600042F40072C3F8142DD3F8882D42F4700288
:103C7000C3F8882DAC4212D3154C164DAC4212D36A
:103C8000FFF736FB144C154DAC4210D338BD52F83B
:103C9000040B43F8040BD7E743F8041BD8E754F8A8
:103CA000043B9847E6E754F8043B9847E6E754F8A6
:103CB000043B9847E8E700BF7C3D00080000002077
:103CC00010000020001A00207C3D00087C3D000808
:103CD0007C3D00087C3D00087C3D00087C3D0008E0
:103CE0004FF0E02320F07F40586170474FF0E02212
:103CF00000F00400136923F00403034313617047C9
:103D00004FF0E022136943F00203136170474FF054
:103D1000E022136943F0010313617047054B420928
:103D200003EB820300F01F00012202FA00F018608A
:103D3000704700BF00E100E05461736B3A2000005F
:103D40002057616974204D7574657800205761694A
:103D500074204261727269657200000020536967C5
:103D60006E616C204D7574657800000020536967A2
:0C3D70006E616C20426172726965720025
:103D7C000D0A000000093D0000093D0000093D004E
:0400000508003C4172
:00000001FF
